{
  "contractName": "ERC20Deflationary",
  "abi": [
    {
      "inputs": [
        {
          "internalType": "string",
          "name": "name_",
          "type": "string"
        },
        {
          "internalType": "string",
          "name": "symbol_",
          "type": "string"
        },
        {
          "internalType": "uint8",
          "name": "decimals_",
          "type": "uint8"
        },
        {
          "internalType": "uint256",
          "name": "tokenSupply_",
          "type": "uint256"
        }
      ],
      "stateMutability": "nonpayable",
      "type": "constructor"
    },
    {
      "anonymous": false,
      "inputs": [
        {
          "indexed": false,
          "internalType": "uint256",
          "name": "amount",
          "type": "uint256"
        }
      ],
      "name": "Airdrop",
      "type": "event"
    },
    {
      "anonymous": false,
      "inputs": [
        {
          "indexed": true,
          "internalType": "address",
          "name": "owner",
          "type": "address"
        },
        {
          "indexed": true,
          "internalType": "address",
          "name": "spender",
          "type": "address"
        },
        {
          "indexed": false,
          "internalType": "uint256",
          "name": "value",
          "type": "uint256"
        }
      ],
      "name": "Approval",
      "type": "event"
    },
    {
      "anonymous": false,
      "inputs": [
        {
          "indexed": false,
          "internalType": "address",
          "name": "from",
          "type": "address"
        },
        {
          "indexed": false,
          "internalType": "uint256",
          "name": "amount",
          "type": "uint256"
        }
      ],
      "name": "Burn",
      "type": "event"
    },
    {
      "anonymous": false,
      "inputs": [],
      "name": "DisabledAutoBurn",
      "type": "event"
    },
    {
      "anonymous": false,
      "inputs": [],
      "name": "DisabledAutoSwapAndLiquify",
      "type": "event"
    },
    {
      "anonymous": false,
      "inputs": [],
      "name": "DisabledReward",
      "type": "event"
    },
    {
      "anonymous": false,
      "inputs": [],
      "name": "EnabledAutoBurn",
      "type": "event"
    },
    {
      "anonymous": false,
      "inputs": [],
      "name": "EnabledAutoSwapAndLiquify",
      "type": "event"
    },
    {
      "anonymous": false,
      "inputs": [],
      "name": "EnabledReward",
      "type": "event"
    },
    {
      "anonymous": false,
      "inputs": [
        {
          "indexed": false,
          "internalType": "address",
          "name": "account",
          "type": "address"
        }
      ],
      "name": "ExcludeAccountFromFee",
      "type": "event"
    },
    {
      "anonymous": false,
      "inputs": [
        {
          "indexed": false,
          "internalType": "address",
          "name": "account",
          "type": "address"
        }
      ],
      "name": "ExcludeAccountFromReward",
      "type": "event"
    },
    {
      "anonymous": false,
      "inputs": [
        {
          "indexed": false,
          "internalType": "address",
          "name": "account",
          "type": "address"
        }
      ],
      "name": "IncludeAccountInFee",
      "type": "event"
    },
    {
      "anonymous": false,
      "inputs": [
        {
          "indexed": false,
          "internalType": "address",
          "name": "account",
          "type": "address"
        }
      ],
      "name": "IncludeAccountInReward",
      "type": "event"
    },
    {
      "anonymous": false,
      "inputs": [
        {
          "indexed": false,
          "internalType": "uint256",
          "name": "previous",
          "type": "uint256"
        },
        {
          "indexed": false,
          "internalType": "uint256",
          "name": "current",
          "type": "uint256"
        }
      ],
      "name": "MinTokensBeforeSwapUpdated",
      "type": "event"
    },
    {
      "anonymous": false,
      "inputs": [
        {
          "indexed": true,
          "internalType": "address",
          "name": "previousOwner",
          "type": "address"
        },
        {
          "indexed": true,
          "internalType": "address",
          "name": "newOwner",
          "type": "address"
        }
      ],
      "name": "OwnershipTransferred",
      "type": "event"
    },
    {
      "anonymous": false,
      "inputs": [
        {
          "indexed": false,
          "internalType": "uint256",
          "name": "tokensSwapped",
          "type": "uint256"
        },
        {
          "indexed": false,
          "internalType": "uint256",
          "name": "ethReceived",
          "type": "uint256"
        },
        {
          "indexed": false,
          "internalType": "uint256",
          "name": "tokensAddedToLiquidity",
          "type": "uint256"
        }
      ],
      "name": "SwapAndLiquify",
      "type": "event"
    },
    {
      "anonymous": false,
      "inputs": [
        {
          "indexed": false,
          "internalType": "uint8",
          "name": "previousTax",
          "type": "uint8"
        },
        {
          "indexed": false,
          "internalType": "uint8",
          "name": "previousDecimals",
          "type": "uint8"
        },
        {
          "indexed": false,
          "internalType": "uint8",
          "name": "currentTax",
          "type": "uint8"
        },
        {
          "indexed": false,
          "internalType": "uint8",
          "name": "currentDecimal",
          "type": "uint8"
        }
      ],
      "name": "TaxBurnUpdate",
      "type": "event"
    },
    {
      "anonymous": false,
      "inputs": [
        {
          "indexed": false,
          "internalType": "uint8",
          "name": "previousTax",
          "type": "uint8"
        },
        {
          "indexed": false,
          "internalType": "uint8",
          "name": "previousDecimals",
          "type": "uint8"
        },
        {
          "indexed": false,
          "internalType": "uint8",
          "name": "currentTax",
          "type": "uint8"
        },
        {
          "indexed": false,
          "internalType": "uint8",
          "name": "currentDecimal",
          "type": "uint8"
        }
      ],
      "name": "TaxLiquifyUpdate",
      "type": "event"
    },
    {
      "anonymous": false,
      "inputs": [
        {
          "indexed": false,
          "internalType": "uint8",
          "name": "previousTax",
          "type": "uint8"
        },
        {
          "indexed": false,
          "internalType": "uint8",
          "name": "previousDecimals",
          "type": "uint8"
        },
        {
          "indexed": false,
          "internalType": "uint8",
          "name": "currentTax",
          "type": "uint8"
        },
        {
          "indexed": false,
          "internalType": "uint8",
          "name": "currentDecimal",
          "type": "uint8"
        }
      ],
      "name": "TaxRewardUpdate",
      "type": "event"
    },
    {
      "anonymous": false,
      "inputs": [
        {
          "indexed": true,
          "internalType": "address",
          "name": "from",
          "type": "address"
        },
        {
          "indexed": true,
          "internalType": "address",
          "name": "to",
          "type": "address"
        },
        {
          "indexed": false,
          "internalType": "uint256",
          "name": "value",
          "type": "uint256"
        }
      ],
      "name": "Transfer",
      "type": "event"
    },
    {
      "inputs": [],
      "name": "owner",
      "outputs": [
        {
          "internalType": "address",
          "name": "",
          "type": "address"
        }
      ],
      "stateMutability": "view",
      "type": "function"
    },
    {
      "inputs": [],
      "name": "renounceOwnership",
      "outputs": [],
      "stateMutability": "nonpayable",
      "type": "function"
    },
    {
      "inputs": [
        {
          "internalType": "address",
          "name": "newOwner",
          "type": "address"
        }
      ],
      "name": "transferOwnership",
      "outputs": [],
      "stateMutability": "nonpayable",
      "type": "function"
    },
    {
      "stateMutability": "payable",
      "type": "receive"
    },
    {
      "inputs": [],
      "name": "name",
      "outputs": [
        {
          "internalType": "string",
          "name": "",
          "type": "string"
        }
      ],
      "stateMutability": "view",
      "type": "function"
    },
    {
      "inputs": [],
      "name": "symbol",
      "outputs": [
        {
          "internalType": "string",
          "name": "",
          "type": "string"
        }
      ],
      "stateMutability": "view",
      "type": "function"
    },
    {
      "inputs": [],
      "name": "decimals",
      "outputs": [
        {
          "internalType": "uint8",
          "name": "",
          "type": "uint8"
        }
      ],
      "stateMutability": "view",
      "type": "function"
    },
    {
      "inputs": [],
      "name": "uniswapV2Pair",
      "outputs": [
        {
          "internalType": "address",
          "name": "",
          "type": "address"
        }
      ],
      "stateMutability": "view",
      "type": "function"
    },
    {
      "inputs": [],
      "name": "taxBurn",
      "outputs": [
        {
          "internalType": "uint8",
          "name": "",
          "type": "uint8"
        }
      ],
      "stateMutability": "view",
      "type": "function"
    },
    {
      "inputs": [],
      "name": "taxReward",
      "outputs": [
        {
          "internalType": "uint8",
          "name": "",
          "type": "uint8"
        }
      ],
      "stateMutability": "view",
      "type": "function"
    },
    {
      "inputs": [],
      "name": "taxLiquify",
      "outputs": [
        {
          "internalType": "uint8",
          "name": "",
          "type": "uint8"
        }
      ],
      "stateMutability": "view",
      "type": "function"
    },
    {
      "inputs": [],
      "name": "taxBurnDecimals",
      "outputs": [
        {
          "internalType": "uint8",
          "name": "",
          "type": "uint8"
        }
      ],
      "stateMutability": "view",
      "type": "function"
    },
    {
      "inputs": [],
      "name": "taxRewardDecimals",
      "outputs": [
        {
          "internalType": "uint8",
          "name": "",
          "type": "uint8"
        }
      ],
      "stateMutability": "view",
      "type": "function"
    },
    {
      "inputs": [],
      "name": "taxLiquifyDecimals",
      "outputs": [
        {
          "internalType": "uint8",
          "name": "",
          "type": "uint8"
        }
      ],
      "stateMutability": "view",
      "type": "function"
    },
    {
      "inputs": [],
      "name": "autoBurnEnabled",
      "outputs": [
        {
          "internalType": "bool",
          "name": "",
          "type": "bool"
        }
      ],
      "stateMutability": "view",
      "type": "function"
    },
    {
      "inputs": [],
      "name": "rewardEnabled",
      "outputs": [
        {
          "internalType": "bool",
          "name": "",
          "type": "bool"
        }
      ],
      "stateMutability": "view",
      "type": "function"
    },
    {
      "inputs": [],
      "name": "autoSwapAndLiquifyEnabled",
      "outputs": [
        {
          "internalType": "bool",
          "name": "",
          "type": "bool"
        }
      ],
      "stateMutability": "view",
      "type": "function"
    },
    {
      "inputs": [],
      "name": "minTokensBeforeSwap",
      "outputs": [
        {
          "internalType": "uint256",
          "name": "",
          "type": "uint256"
        }
      ],
      "stateMutability": "view",
      "type": "function"
    },
    {
      "inputs": [],
      "name": "totalSupply",
      "outputs": [
        {
          "internalType": "uint256",
          "name": "",
          "type": "uint256"
        }
      ],
      "stateMutability": "view",
      "type": "function"
    },
    {
      "inputs": [],
      "name": "currentSupply",
      "outputs": [
        {
          "internalType": "uint256",
          "name": "",
          "type": "uint256"
        }
      ],
      "stateMutability": "view",
      "type": "function"
    },
    {
      "inputs": [],
      "name": "totalBurnt",
      "outputs": [
        {
          "internalType": "uint256",
          "name": "",
          "type": "uint256"
        }
      ],
      "stateMutability": "view",
      "type": "function"
    },
    {
      "inputs": [],
      "name": "totalTokensLockedInLiquidity",
      "outputs": [
        {
          "internalType": "uint256",
          "name": "",
          "type": "uint256"
        }
      ],
      "stateMutability": "view",
      "type": "function"
    },
    {
      "inputs": [],
      "name": "totalETHLockedInLiquidity",
      "outputs": [
        {
          "internalType": "uint256",
          "name": "",
          "type": "uint256"
        }
      ],
      "stateMutability": "view",
      "type": "function"
    },
    {
      "inputs": [
        {
          "internalType": "address",
          "name": "account",
          "type": "address"
        }
      ],
      "name": "balanceOf",
      "outputs": [
        {
          "internalType": "uint256",
          "name": "",
          "type": "uint256"
        }
      ],
      "stateMutability": "view",
      "type": "function"
    },
    {
      "inputs": [
        {
          "internalType": "address",
          "name": "account",
          "type": "address"
        }
      ],
      "name": "isExcludedFromReward",
      "outputs": [
        {
          "internalType": "bool",
          "name": "",
          "type": "bool"
        }
      ],
      "stateMutability": "view",
      "type": "function"
    },
    {
      "inputs": [
        {
          "internalType": "address",
          "name": "account",
          "type": "address"
        }
      ],
      "name": "isExcludedFromFee",
      "outputs": [
        {
          "internalType": "bool",
          "name": "",
          "type": "bool"
        }
      ],
      "stateMutability": "view",
      "type": "function"
    },
    {
      "inputs": [
        {
          "internalType": "address",
          "name": "recipient",
          "type": "address"
        },
        {
          "internalType": "uint256",
          "name": "amount",
          "type": "uint256"
        }
      ],
      "name": "transfer",
      "outputs": [
        {
          "internalType": "bool",
          "name": "",
          "type": "bool"
        }
      ],
      "stateMutability": "nonpayable",
      "type": "function"
    },
    {
      "inputs": [
        {
          "internalType": "address",
          "name": "owner",
          "type": "address"
        },
        {
          "internalType": "address",
          "name": "spender",
          "type": "address"
        }
      ],
      "name": "allowance",
      "outputs": [
        {
          "internalType": "uint256",
          "name": "",
          "type": "uint256"
        }
      ],
      "stateMutability": "view",
      "type": "function"
    },
    {
      "inputs": [
        {
          "internalType": "address",
          "name": "spender",
          "type": "address"
        },
        {
          "internalType": "uint256",
          "name": "amount",
          "type": "uint256"
        }
      ],
      "name": "approve",
      "outputs": [
        {
          "internalType": "bool",
          "name": "",
          "type": "bool"
        }
      ],
      "stateMutability": "nonpayable",
      "type": "function"
    },
    {
      "inputs": [
        {
          "internalType": "address",
          "name": "sender",
          "type": "address"
        },
        {
          "internalType": "address",
          "name": "recipient",
          "type": "address"
        },
        {
          "internalType": "uint256",
          "name": "amount",
          "type": "uint256"
        }
      ],
      "name": "transferFrom",
      "outputs": [
        {
          "internalType": "bool",
          "name": "",
          "type": "bool"
        }
      ],
      "stateMutability": "nonpayable",
      "type": "function"
    },
    {
      "inputs": [
        {
          "internalType": "address",
          "name": "spender",
          "type": "address"
        },
        {
          "internalType": "uint256",
          "name": "addedValue",
          "type": "uint256"
        }
      ],
      "name": "increaseAllowance",
      "outputs": [
        {
          "internalType": "bool",
          "name": "",
          "type": "bool"
        }
      ],
      "stateMutability": "nonpayable",
      "type": "function"
    },
    {
      "inputs": [
        {
          "internalType": "address",
          "name": "spender",
          "type": "address"
        },
        {
          "internalType": "uint256",
          "name": "subtractedValue",
          "type": "uint256"
        }
      ],
      "name": "decreaseAllowance",
      "outputs": [
        {
          "internalType": "bool",
          "name": "",
          "type": "bool"
        }
      ],
      "stateMutability": "nonpayable",
      "type": "function"
    },
    {
      "inputs": [
        {
          "internalType": "uint256",
          "name": "amount",
          "type": "uint256"
        }
      ],
      "name": "burn",
      "outputs": [],
      "stateMutability": "nonpayable",
      "type": "function"
    },
    {
      "inputs": [
        {
          "internalType": "address",
          "name": "account",
          "type": "address"
        },
        {
          "internalType": "uint256",
          "name": "amount",
          "type": "uint256"
        }
      ],
      "name": "burnFrom",
      "outputs": [],
      "stateMutability": "nonpayable",
      "type": "function"
    },
    {
      "inputs": [
        {
          "internalType": "uint256",
          "name": "amount",
          "type": "uint256"
        }
      ],
      "name": "airdrop",
      "outputs": [],
      "stateMutability": "nonpayable",
      "type": "function"
    },
    {
      "inputs": [
        {
          "internalType": "uint8",
          "name": "taxBurn_",
          "type": "uint8"
        },
        {
          "internalType": "uint8",
          "name": "taxBurnDecimals_",
          "type": "uint8"
        }
      ],
      "name": "enableAutoBurn",
      "outputs": [],
      "stateMutability": "nonpayable",
      "type": "function"
    },
    {
      "inputs": [
        {
          "internalType": "uint8",
          "name": "taxReward_",
          "type": "uint8"
        },
        {
          "internalType": "uint8",
          "name": "taxRewardDecimals_",
          "type": "uint8"
        }
      ],
      "name": "enableReward",
      "outputs": [],
      "stateMutability": "nonpayable",
      "type": "function"
    },
    {
      "inputs": [
        {
          "internalType": "uint8",
          "name": "taxLiquify_",
          "type": "uint8"
        },
        {
          "internalType": "uint8",
          "name": "taxLiquifyDecimals_",
          "type": "uint8"
        },
        {
          "internalType": "uint256",
          "name": "minTokensBeforeSwap_",
          "type": "uint256"
        }
      ],
      "name": "enableAutoSwapAndLiquify",
      "outputs": [],
      "stateMutability": "nonpayable",
      "type": "function"
    },
    {
      "inputs": [],
      "name": "disableAutoBurn",
      "outputs": [],
      "stateMutability": "nonpayable",
      "type": "function"
    },
    {
      "inputs": [],
      "name": "disableReward",
      "outputs": [],
      "stateMutability": "nonpayable",
      "type": "function"
    },
    {
      "inputs": [],
      "name": "disableAutoSwapAndLiquify",
      "outputs": [],
      "stateMutability": "nonpayable",
      "type": "function"
    },
    {
      "inputs": [
        {
          "internalType": "uint256",
          "name": "minTokensBeforeSwap_",
          "type": "uint256"
        }
      ],
      "name": "setMinTokensBeforeSwap",
      "outputs": [],
      "stateMutability": "nonpayable",
      "type": "function"
    },
    {
      "inputs": [
        {
          "internalType": "uint8",
          "name": "taxBurn_",
          "type": "uint8"
        },
        {
          "internalType": "uint8",
          "name": "taxBurnDecimals_",
          "type": "uint8"
        }
      ],
      "name": "setTaxBurn",
      "outputs": [],
      "stateMutability": "nonpayable",
      "type": "function"
    },
    {
      "inputs": [
        {
          "internalType": "uint8",
          "name": "taxReward_",
          "type": "uint8"
        },
        {
          "internalType": "uint8",
          "name": "taxRewardDecimals_",
          "type": "uint8"
        }
      ],
      "name": "setTaxReward",
      "outputs": [],
      "stateMutability": "nonpayable",
      "type": "function"
    },
    {
      "inputs": [
        {
          "internalType": "uint8",
          "name": "taxLiquify_",
          "type": "uint8"
        },
        {
          "internalType": "uint8",
          "name": "taxLiquifyDecimals_",
          "type": "uint8"
        }
      ],
      "name": "setTaxLiquify",
      "outputs": [],
      "stateMutability": "nonpayable",
      "type": "function"
    }
  ],
  "bytecode": "0x60806040523480156200001157600080fd5b506040516200406d3803806200406d8339810160408190526200003491620002ad565b600080546001600160a01b031916339081178255604051909182917f8be0079c531659141344cd1fd0a4f28419497f9722a3daafe3b4186f6b6457e0908290a35083516200008a90601190602087019062000154565b508251620000a090601290602086019062000154565b506008805460ff60d01b1916600160d01b60ff851602179055620000c682600a6200037d565b620000d290826200044b565b6009819055600a819055620000ea90600019620004c4565b620000f8906000196200046d565b600b819055336000818152600160209081526040808320949094556009549351938452919290917fddf252ad1be2c89b69c2b068fc378daa952ba7f163c4a11628f55a4df523b3ef910160405180910390a35050505062000511565b828054620001629062000487565b90600052602060002090601f016020900481019282620001865760008555620001d1565b82601f10620001a157805160ff1916838001178555620001d1565b82800160010185558215620001d1579182015b82811115620001d1578251825591602001919060010190620001b4565b50620001df929150620001e3565b5090565b5b80821115620001df5760008155600101620001e4565b600082601f8301126200020b578081fd5b81516001600160401b0380821115620002285762000228620004fb565b604051601f8301601f19908116603f01168101908282118183101715620002535762000253620004fb565b816040528381526020925086838588010111156200026f578485fd5b8491505b8382101562000292578582018301518183018401529082019062000273565b83821115620002a357848385830101525b9695505050505050565b60008060008060808587031215620002c3578384fd5b84516001600160401b0380821115620002da578586fd5b620002e888838901620001fa565b95506020870151915080821115620002fe578485fd5b506200030d87828801620001fa565b935050604085015160ff8116811462000324578283fd5b6060959095015193969295505050565b600181815b8085111562000375578160001904821115620003595762000359620004e5565b808516156200036757918102915b93841c939080029062000339565b509250929050565b60006200038e60ff84168362000395565b9392505050565b600082620003a65750600162000445565b81620003b55750600062000445565b8160018114620003ce5760028114620003d957620003f9565b600191505062000445565b60ff841115620003ed57620003ed620004e5565b50506001821b62000445565b5060208310610133831016604e8410600b84101617156200041e575081810a62000445565b6200042a838362000334565b8060001904821115620004415762000441620004e5565b0290505b92915050565b6000816000190483118215151615620004685762000468620004e5565b500290565b600082821015620004825762000482620004e5565b500390565b600181811c908216806200049c57607f821691505b60208210811415620004be57634e487b7160e01b600052602260045260246000fd5b50919050565b600082620004e057634e487b7160e01b81526012600452602481fd5b500690565b634e487b7160e01b600052601160045260246000fd5b634e487b7160e01b600052604160045260246000fd5b613b4c80620005216000396000f3fe6080604052600436106102eb5760003560e01c80637656e14611610184578063a9059cbb116100d6578063e5d41c6b1161008a578063f91f054011610064578063f91f0540146108ff578063fa6e3f5414610914578063fbfa089c1461093457600080fd5b8063e5d41c6b14610898578063ea1c38b2146108ad578063f2fde38b146108df57600080fd5b8063d3f1e9e6116100bb578063d3f1e9e6146107f1578063d42ac37714610811578063dd62ed3e1461084557600080fd5b8063a9059cbb146107a0578063ad8e91dd146107c057600080fd5b806395d89b4111610138578063998acc0e11610112578063998acc0e146107425780639dd255da14610762578063a457c2d71461078057600080fd5b806395d89b41146106f8578063966ff6501461070d57806397dc4a131461072257600080fd5b806379cc67901161016957806379cc67901461066757806388f82020146106875780638da5cb5b146106cd57600080fd5b80637656e1461461063d578063771282f61461065257600080fd5b8063470d5cbd1161023d5780635342acb4116101f15780636e999d36116101cb5780636e999d36146105f357806370a0823114610608578063715018a61461062857600080fd5b80635342acb4146105785780636483ea8b146105be578063681bdc99146105d357600080fd5b806348a464731161022257806348a46473146104ec57806348abdec51461050c57806349bd5a5e1461052c57600080fd5b8063470d5cbd146104b75780634895c3e6146104cc57600080fd5b806318160ddd1161029f578063313ce56711610279578063313ce5671461043f578063395093511461047557806342966c681461049557600080fd5b806318160ddd146103e35780631c3034951461040257806323b872dd1461041f57600080fd5b8063095ea7b3116102d0578063095ea7b31461035f57806313facdb71461038f57806317ee6995146103c457600080fd5b806301b71531146102f757806306fdde031461033d57600080fd5b366102f257005b600080fd5b34801561030357600080fd5b5060085477010000000000000000000000000000000000000000000000900460ff165b60405160ff90911681526020015b60405180910390f35b34801561034957600080fd5b50610352610964565b60405161033491906137f5565b34801561036b57600080fd5b5061037f61037a366004613760565b6109f6565b6040519015158152602001610334565b34801561039b57600080fd5b50600854790100000000000000000000000000000000000000000000000000900460ff16610326565b3480156103d057600080fd5b506013546301000000900460ff1661037f565b3480156103ef57600080fd5b506009545b604051908152602001610334565b34801561040e57600080fd5b50601354610100900460ff1661037f565b34801561042b57600080fd5b5061037f61043a366004613725565b610a0d565b34801561044b57600080fd5b506008547a010000000000000000000000000000000000000000000000000000900460ff16610326565b34801561048157600080fd5b5061037f610490366004613760565b610b17565b3480156104a157600080fd5b506104b56104b0366004613789565b610b5b565b005b3480156104c357600080fd5b506104b5610b68565b3480156104d857600080fd5b506104b56104e73660046137a1565b610cac565b3480156104f857600080fd5b506104b5610507366004613789565b610eef565b34801561051857600080fd5b506104b56105273660046137ca565b611012565b34801561053857600080fd5b5060085473ffffffffffffffffffffffffffffffffffffffff165b60405173ffffffffffffffffffffffffffffffffffffffff9091168152602001610334565b34801561058457600080fd5b5061037f6105933660046136d9565b73ffffffffffffffffffffffffffffffffffffffff1660009081526003602052604090205460ff1690565b3480156105ca57600080fd5b506104b5611259565b3480156105df57600080fd5b506104b56105ee3660046137a1565b61139b565b3480156105ff57600080fd5b50600e546103f4565b34801561061457600080fd5b506103f46106233660046136d9565b61163c565b34801561063457600080fd5b506104b56116c2565b34801561064957600080fd5b506104b5611798565b34801561065e57600080fd5b50600a546103f4565b34801561067357600080fd5b506104b5610682366004613760565b6118db565b34801561069357600080fd5b5061037f6106a23660046136d9565b73ffffffffffffffffffffffffffffffffffffffff1660009081526004602052604090205460ff1690565b3480156106d957600080fd5b5060005473ffffffffffffffffffffffffffffffffffffffff16610553565b34801561070457600080fd5b5061035261197c565b34801561071957600080fd5b50600d546103f4565b34801561072e57600080fd5b506104b561073d366004613789565b61198b565b34801561074e57600080fd5b506104b561075d3660046137a1565b611b2b565b34801561076e57600080fd5b5060135462010000900460ff1661037f565b34801561078c57600080fd5b5061037f61079b366004613760565b611d70565b3480156107ac57600080fd5b5061037f6107bb366004613760565b611e26565b3480156107cc57600080fd5b506008547501000000000000000000000000000000000000000000900460ff16610326565b3480156107fd57600080fd5b506104b561080c3660046137a1565b611e33565b34801561081d57600080fd5b506008547801000000000000000000000000000000000000000000000000900460ff16610326565b34801561085157600080fd5b506103f46108603660046136f3565b73ffffffffffffffffffffffffffffffffffffffff918216600090815260066020908152604080832093909416825291909152205490565b3480156108a457600080fd5b506010546103f4565b3480156108b957600080fd5b50600854760100000000000000000000000000000000000000000000900460ff16610326565b3480156108eb57600080fd5b506104b56108fa3660046136d9565b6120cb565b34801561090b57600080fd5b50600f546103f4565b34801561092057600080fd5b506104b561092f3660046137a1565b612248565b34801561094057600080fd5b5060085474010000000000000000000000000000000000000000900460ff16610326565b60606011805461097390613a5a565b80601f016020809104026020016040519081016040528092919081815260200182805461099f90613a5a565b80156109ec5780601f106109c1576101008083540402835291602001916109ec565b820191906000526020600020905b8154815290600101906020018083116109cf57829003601f168201915b5050505050905090565b6000610a033384846124cd565b5060015b92915050565b6000610a1a84848461264c565b73ffffffffffffffffffffffffffffffffffffffff84166000908152600660209081526040808320338452909152902054821115610ac55760405162461bcd60e51b815260206004820152602860248201527f45524332303a207472616e7366657220616d6f756e742065786365656473206160448201527f6c6c6f77616e636500000000000000000000000000000000000000000000000060648201526084015b60405180910390fd5b73ffffffffffffffffffffffffffffffffffffffff8416600090815260066020908152604080832033808552925290912054610b0d918691610b08908690613a43565b6124cd565b5060019392505050565b33600081815260066020908152604080832073ffffffffffffffffffffffffffffffffffffffff871684529091528120549091610a03918590610b08908690613866565b610b6533826129f8565b50565b60005473ffffffffffffffffffffffffffffffffffffffff163314610bcf5760405162461bcd60e51b815260206004820181905260248201527f4f776e61626c653a2063616c6c6572206973206e6f7420746865206f776e65726044820152606401610abc565b6013546301000000900460ff16610c4e5760405162461bcd60e51b815260206004820152602360248201527f526577617264206665617475726520697320616c72656164792064697361626c60448201527f65642e00000000000000000000000000000000000000000000000000000000006064820152608401610abc565b610c59600080612248565b601380547fffffffffffffffffffffffffffffffffffffffffffffffffffffffff00ffffff1690556040517f9843194c3ceed34b5019222853f7806a15e8658437ee2a92d9497af23775eb1c90600090a1565b60005473ffffffffffffffffffffffffffffffffffffffff163314610d135760405162461bcd60e51b815260206004820181905260248201527f4f776e61626c653a2063616c6c6572206973206e6f7420746865206f776e65726044820152606401610abc565b60135462010000900460ff1615610d925760405162461bcd60e51b815260206004820152602560248201527f4175746f206275726e206665617475726520697320616c726561647920656e6160448201527f626c65642e0000000000000000000000000000000000000000000000000000006064820152608401610abc565b60008260ff1611610de55760405162461bcd60e51b815260206004820152601b60248201527f546178206d7573742062652067726561746572207468616e20302e00000000006044820152606401610abc565b6008547a010000000000000000000000000000000000000000000000000000900460ff16610e1482600261387e565b60ff161115610e8b5760405162461bcd60e51b815260206004820152603160248201527f54617820646563696d616c73206d757374206265206c657373207468616e207460448201527f6f6b656e20646563696d616c73202d20320000000000000000000000000000006064820152608401610abc565b601380547fffffffffffffffffffffffffffffffffffffffffffffffffffffffffff00ffff1662010000179055610ec2828261139b565b6040517f1ae0c73021a2d0e597101e249754f53e8496443b3820ba2128b562a9873ad0b190600090a15050565b60005473ffffffffffffffffffffffffffffffffffffffff163314610f565760405162461bcd60e51b815260206004820181905260248201527f4f776e61626c653a2063616c6c6572206973206e6f7420746865206f776e65726044820152606401610abc565b600a548110610fcd5760405162461bcd60e51b815260206004820152603760248201527f6d696e546f6b656e734265666f726553776170206d757374206265206869676860448201527f6572207468616e2063757272656e7420737570706c792e0000000000000000006064820152608401610abc565b601080549082905560408051828152602081018490527fd2f58a5c369e86bc74f3b5be6f9a34224ebb43d603f7acee04b07ef21c7d14bf910160405180910390a15050565b60005473ffffffffffffffffffffffffffffffffffffffff1633146110795760405162461bcd60e51b815260206004820181905260248201527f4f776e61626c653a2063616c6c6572206973206e6f7420746865206f776e65726044820152606401610abc565b601354610100900460ff16156110f75760405162461bcd60e51b815260206004820152603160248201527f4175746f207377617020616e64206c697175696679206665617475726520697360448201527f20616c726561647920656e61626c65642e0000000000000000000000000000006064820152608401610abc565b60008360ff161161114a5760405162461bcd60e51b815260206004820152601b60248201527f546178206d7573742062652067726561746572207468616e20302e00000000006044820152606401610abc565b6008547a010000000000000000000000000000000000000000000000000000900460ff1661117983600261387e565b60ff1611156111f05760405162461bcd60e51b815260206004820152603160248201527f54617820646563696d616c73206d757374206265206c657373207468616e207460448201527f6f6b656e20646563696d616c73202d20320000000000000000000000000000006064820152608401610abc565b6010819055601380547fffffffffffffffffffffffffffffffffffffffffffffffffffffffffffff00ff1661010017905561122b8383611e33565b6040517fa00cf3c70c4ccd1ccc7e6403d8e96dc52e5727f0b30bffb4ea2969689fcb600890600090a1505050565b60005473ffffffffffffffffffffffffffffffffffffffff1633146112c05760405162461bcd60e51b815260206004820181905260248201527f4f776e61626c653a2063616c6c6572206973206e6f7420746865206f776e65726044820152606401610abc565b601354610100900460ff1661133d5760405162461bcd60e51b815260206004820152603260248201527f4175746f207377617020616e64206c697175696679206665617475726520697360448201527f20616c72656164792064697361626c65642e00000000000000000000000000006064820152608401610abc565b611348600080611e33565b601380547fffffffffffffffffffffffffffffffffffffffffffffffffffffffffffff00ff1690556040517f8b81884e0d82e2abd8363cce812b78c588d27387411db0470222a728a917783e90600090a1565b60005473ffffffffffffffffffffffffffffffffffffffff1633146114025760405162461bcd60e51b815260206004820181905260248201527f4f776e61626c653a2063616c6c6572206973206e6f7420746865206f776e65726044820152606401610abc565b60135462010000900460ff166114a65760405162461bcd60e51b815260206004820152604360248201527f4175746f206275726e2066656174757265206d75737420626520656e61626c6560448201527f642e205472792074686520456e61626c654175746f4275726e2066756e63746960648201527f6f6e2e0000000000000000000000000000000000000000000000000000000000608482015260a401610abc565b60085460649060ff79010000000000000000000000000000000000000000000000000082048116916114f6917801000000000000000000000000000000000000000000000000909104168561387e565b611500919061387e565b60ff16106115505760405162461bcd60e51b815260206004820152601160248201527f5461782066656520746f6f20686967682e0000000000000000000000000000006044820152606401610abc565b6008805460ff838116740100000000000000000000000000000000000000008181027fffffffffffffffffffffff00ffffffffffffffffffffffffffffffffffffffff88851677010000000000000000000000000000000000000000000000818102929092167fffffffffffffffff00ffff00ffffffffffffffffffffffffffffffffffffffff881617929092179096556040805196860485168088529290950490931660208601819052938501929092526060840152917f7934aea8452d2868336870fe7e0784562b6cf5cf909818ca893be463a9c676ff906080015b60405180910390a150505050565b73ffffffffffffffffffffffffffffffffffffffff811660009081526004602052604081205460ff1615611693575073ffffffffffffffffffffffffffffffffffffffff1660009081526002602052604090205490565b73ffffffffffffffffffffffffffffffffffffffff8216600090815260016020526040902054610a0790612d5e565b60005473ffffffffffffffffffffffffffffffffffffffff1633146117295760405162461bcd60e51b815260206004820181905260248201527f4f776e61626c653a2063616c6c6572206973206e6f7420746865206f776e65726044820152606401610abc565b6000805460405173ffffffffffffffffffffffffffffffffffffffff909116907f8be0079c531659141344cd1fd0a4f28419497f9722a3daafe3b4186f6b6457e0908390a3600080547fffffffffffffffffffffffff0000000000000000000000000000000000000000169055565b60005473ffffffffffffffffffffffffffffffffffffffff1633146117ff5760405162461bcd60e51b815260206004820181905260248201527f4f776e61626c653a2063616c6c6572206973206e6f7420746865206f776e65726044820152606401610abc565b60135462010000900460ff1661187d5760405162461bcd60e51b815260206004820152602660248201527f4175746f206275726e206665617475726520697320616c72656164792064697360448201527f61626c65642e00000000000000000000000000000000000000000000000000006064820152608401610abc565b61188860008061139b565b601380547fffffffffffffffffffffffffffffffffffffffffffffffffffffffffff00ffff1690556040517f6d4de23ebf419282b51fea4d5ebe9d980cf43df3f9e8ddde137786adfc2c5d6a90600090a1565b60006118e78333610860565b90508181101561195e5760405162461bcd60e51b8152602060048201526024808201527f45524332303a206275726e20616d6f756e74206578636565647320616c6c6f7760448201527f616e6365000000000000000000000000000000000000000000000000000000006064820152608401610abc565b61196d8333610b088585613a43565b61197783836129f8565b505050565b60606012805461097390613a5a565b33816119968261163c565b1015611a0a5760405162461bcd60e51b815260206004820152602760248201527f5468652063616c6c6572206d75737420686176652062616c616e6365203e3d2060448201527f616d6f756e742e000000000000000000000000000000000000000000000000006064820152608401610abc565b6000611a17836000612df5565b73ffffffffffffffffffffffffffffffffffffffff831660009081526004602052604090205490915060ff1615611a8557805173ffffffffffffffffffffffffffffffffffffffff831660009081526002602052604081208054909190611a7f908490613a43565b90915550505b60a081015173ffffffffffffffffffffffffffffffffffffffff831660009081526001602052604081208054909190611abf908490613a43565b909155505060a0810151600b54611ad69190613a43565b600b8190555082600c6000828254611aee9190613866565b90915550506040518381527fd0ecdf4854f39daba34ba0e2c1ed0132a7023a5434bffc90b24f3335fb90e5e39060200160405180910390a1505050565b60005473ffffffffffffffffffffffffffffffffffffffff163314611b925760405162461bcd60e51b815260206004820181905260248201527f4f776e61626c653a2063616c6c6572206973206e6f7420746865206f776e65726044820152606401610abc565b6013546301000000900460ff1615611c125760405162461bcd60e51b815260206004820152602260248201527f526577617264206665617475726520697320616c726561647920656e61626c6560448201527f642e0000000000000000000000000000000000000000000000000000000000006064820152608401610abc565b60008260ff1611611c655760405162461bcd60e51b815260206004820152601b60248201527f546178206d7573742062652067726561746572207468616e20302e00000000006044820152606401610abc565b6008547a010000000000000000000000000000000000000000000000000000900460ff16611c9482600261387e565b60ff161115611d0b5760405162461bcd60e51b815260206004820152603160248201527f54617820646563696d616c73206d757374206265206c657373207468616e207460448201527f6f6b656e20646563696d616c73202d20320000000000000000000000000000006064820152608401610abc565b601380547fffffffffffffffffffffffffffffffffffffffffffffffffffffffff00ffffff166301000000179055611d438282612248565b6040517fba4445e1bffa6a2c7f9686f9082addd1cbaf92d402889b0c26dcc2aa101f658e90600090a15050565b33600090815260066020908152604080832073ffffffffffffffffffffffffffffffffffffffff8616845290915281205482811015611e175760405162461bcd60e51b815260206004820152602560248201527f45524332303a2064656372656173656420616c6c6f77616e63652062656c6f7760448201527f207a65726f0000000000000000000000000000000000000000000000000000006064820152608401610abc565b610b0d3385610b088685613a43565b6000610a0333848461264c565b60005473ffffffffffffffffffffffffffffffffffffffff163314611e9a5760405162461bcd60e51b815260206004820181905260248201527f4f776e61626c653a2063616c6c6572206973206e6f7420746865206f776e65726044820152606401610abc565b601354610100900460ff16611f3d5760405162461bcd60e51b815260206004820152605960248201527f4175746f207377617020616e64206c6971756966792066656174757265206d7560448201527f737420626520656e61626c65642e205472792074686520456e61626c6541757460648201527f6f53776170416e644c6971756966792066756e6374696f6e2e00000000000000608482015260a401610abc565b6008546064908390611f8b9060ff780100000000000000000000000000000000000000000000000082048116917701000000000000000000000000000000000000000000000090041661387e565b611f95919061387e565b60ff1610611fe55760405162461bcd60e51b815260206004820152601160248201527f5461782066656520746f6f20686967682e0000000000000000000000000000006044820152606401610abc565b6008805460ff8381167601000000000000000000000000000000000000000000008181027fffffffffffffffffff00ffffffffffffffffffffffffffffffffffffffffffff888516790100000000000000000000000000000000000000000000000000818102929092167fffffffffffff00ffff00ffffffffffffffffffffffffffffffffffffffffffff881617929092179096556040805196860485168088529290950490931660208601819052938501929092526060840152917f4ef9498dae4f4f6d32f12de45f94544890db3c4ed687b86b0774a34dd2de317f9060800161162e565b60005473ffffffffffffffffffffffffffffffffffffffff1633146121325760405162461bcd60e51b815260206004820181905260248201527f4f776e61626c653a2063616c6c6572206973206e6f7420746865206f776e65726044820152606401610abc565b73ffffffffffffffffffffffffffffffffffffffff81166121bb5760405162461bcd60e51b815260206004820152602660248201527f4f776e61626c653a206e6577206f776e657220697320746865207a65726f206160448201527f64647265737300000000000000000000000000000000000000000000000000006064820152608401610abc565b6000805460405173ffffffffffffffffffffffffffffffffffffffff808516939216917f8be0079c531659141344cd1fd0a4f28419497f9722a3daafe3b4186f6b6457e091a3600080547fffffffffffffffffffffffff00000000000000000000000000000000000000001673ffffffffffffffffffffffffffffffffffffffff92909216919091179055565b60005473ffffffffffffffffffffffffffffffffffffffff1633146122af5760405162461bcd60e51b815260206004820181905260248201527f4f776e61626c653a2063616c6c6572206973206e6f7420746865206f776e65726044820152606401610abc565b6013546301000000900460ff1661232e5760405162461bcd60e51b815260206004820152603e60248201527f5265776172642066656174757265206d75737420626520656e61626c65642e2060448201527f5472792074686520456e61626c655265776172642066756e6374696f6e2e00006064820152608401610abc565b60085460649060ff790100000000000000000000000000000000000000000000000000820481169161237d9186917701000000000000000000000000000000000000000000000090041661387e565b612387919061387e565b60ff16106123d75760405162461bcd60e51b815260206004820152601160248201527f5461782066656520746f6f20686967682e0000000000000000000000000000006044820152606401610abc565b6008805460ff8381167401000000000000000000000000000000000000000081027fffffffffffffffffffffff00ffffffffffffffffffffffffffffffffffffffff8784167801000000000000000000000000000000000000000000000000818102929092167fffffffffffffff00ffffff00ffffffffffffffffffffffffffffffffffffffff8716179290921790955560408051958504841680875275010000000000000000000000000000000000000000009095049093166020860181905292850152606084015290917f6c039e29b159adea5dd8b7d9d918df95d17403688c82bbb43cee50f0de301fc09060800161162e565b73ffffffffffffffffffffffffffffffffffffffff83166125555760405162461bcd60e51b8152602060048201526024808201527f45524332303a20617070726f76652066726f6d20746865207a65726f2061646460448201527f72657373000000000000000000000000000000000000000000000000000000006064820152608401610abc565b73ffffffffffffffffffffffffffffffffffffffff82166125de5760405162461bcd60e51b815260206004820152602260248201527f45524332303a20617070726f766520746f20746865207a65726f20616464726560448201527f73730000000000000000000000000000000000000000000000000000000000006064820152608401610abc565b73ffffffffffffffffffffffffffffffffffffffff83811660008181526006602090815260408083209487168084529482529182902085905590518481527f8c5be1e5ebec7d5bd14f71427d1e84f3dd0314c0f7b2291e5b200ac8c7c3b925910160405180910390a3505050565b73ffffffffffffffffffffffffffffffffffffffff83166126d55760405162461bcd60e51b815260206004820152602560248201527f45524332303a207472616e736665722066726f6d20746865207a65726f20616460448201527f64726573730000000000000000000000000000000000000000000000000000006064820152608401610abc565b73ffffffffffffffffffffffffffffffffffffffff821661275e5760405162461bcd60e51b815260206004820152602360248201527f45524332303a207472616e7366657220746f20746865207a65726f206164647260448201527f65737300000000000000000000000000000000000000000000000000000000006064820152608401610abc565b73ffffffffffffffffffffffffffffffffffffffff831660009081526003602052604081205461279290839060ff16612df5565b73ffffffffffffffffffffffffffffffffffffffff851660009081526004602052604090205490915060ff1680156127f0575073ffffffffffffffffffffffffffffffffffffffff831660009081526004602052604090205460ff16155b1561280557612800848483612eb8565b612951565b73ffffffffffffffffffffffffffffffffffffffff841660009081526004602052604090205460ff16158015612860575073ffffffffffffffffffffffffffffffffffffffff831660009081526004602052604090205460ff165b1561287057612800848483612fa1565b73ffffffffffffffffffffffffffffffffffffffff841660009081526004602052604090205460ff161580156128cc575073ffffffffffffffffffffffffffffffffffffffff831660009081526004602052604090205460ff16155b156128dc57612800848483613065565b73ffffffffffffffffffffffffffffffffffffffff841660009081526004602052604090205460ff168015612936575073ffffffffffffffffffffffffffffffffffffffff831660009081526004602052604090205460ff165b156129465761280084848361309a565b612951848483613065565b8273ffffffffffffffffffffffffffffffffffffffff168473ffffffffffffffffffffffffffffffffffffffff167fddf252ad1be2c89b69c2b068fc378daa952ba7f163c4a11628f55a4df523b3ef83608001516040516129b491815260200190565b60405180910390a373ffffffffffffffffffffffffffffffffffffffff841660009081526003602052604090205460ff166129f2576129f281613110565b50505050565b73ffffffffffffffffffffffffffffffffffffffff821673f3d383aae83c80cccfef84ee7e864e1c249089ff1415612a985760405162461bcd60e51b815260206004820152602160248201527f45524332303a206275726e2066726f6d20746865206275726e2061646472657360448201527f73000000000000000000000000000000000000000000000000000000000000006064820152608401610abc565b6000612aa38361163c565b905081811015612b1b5760405162461bcd60e51b815260206004820152602260248201527f45524332303a206275726e20616d6f756e7420657863656564732062616c616e60448201527f63650000000000000000000000000000000000000000000000000000000000006064820152608401610abc565b6000612b26836131b7565b73ffffffffffffffffffffffffffffffffffffffff851660009081526004602052604090205490915060ff1615612b925773ffffffffffffffffffffffffffffffffffffffff841660009081526002602052604081208054859290612b8c908490613a43565b90915550505b73ffffffffffffffffffffffffffffffffffffffff841660009081526001602052604081208054839290612bc7908490613a43565b909155505073f3d383aae83c80cccfef84ee7e864e1c249089ff600090815260026020527f324490b176db5f40fff71a1d336735a3708d1db27d98ef1ee80d416ab433588b8054859290612c1c908490613866565b909155505073f3d383aae83c80cccfef84ee7e864e1c249089ff600090815260016020527ff25936cf7c37ab6bbcf4397cdd2c6b5a56dcea3c4d889090cde543abca3ebdbf8054839290612c71908490613866565b9250508190555082600a6000828254612c8a9190613a43565b9250508190555082600d6000828254612ca39190613866565b90915550506040805173ffffffffffffffffffffffffffffffffffffffff86168152602081018590527fcc16f5dbb4873280815c1ee09dbd06736cffcc184412cf7a71a0fdb75d397ca5910160405180910390a160405183815273f3d383aae83c80cccfef84ee7e864e1c249089ff9073ffffffffffffffffffffffffffffffffffffffff8616907fddf252ad1be2c89b69c2b068fc378daa952ba7f163c4a11628f55a4df523b3ef9060200160405180910390a350505050565b6000600b54821115612dd85760405162461bcd60e51b815260206004820152602a60248201527f416d6f756e74206d757374206265206c657373207468616e20746f74616c207260448201527f65666c656374696f6e73000000000000000000000000000000000000000000006064820152608401610abc565b6000612de26131ce565b9050612dee81846138a3565b9392505050565b612e4b604051806101400160405280600081526020016000815260200160008152602001600081526020016000815260200160008152602001600081526020016000815260200160008152602001600081525090565b612ea1604051806101400160405280600081526020016000815260200160008152602001600081526020016000815260200160008152602001600081526020016000815260200160008152602001600081525090565b838152612eae81846131f1565b612dee8184613324565b805173ffffffffffffffffffffffffffffffffffffffff8416600090815260026020526040902054612eea9190613a43565b73ffffffffffffffffffffffffffffffffffffffff841660009081526002602090815260408083209390935560a0840151600190915291902054612f2e9190613a43565b73ffffffffffffffffffffffffffffffffffffffff8085166000908152600160205260408082209390935561012084015191851681529190912054612f739190613866565b73ffffffffffffffffffffffffffffffffffffffff9092166000908152600160205260409020919091555050565b60a081015173ffffffffffffffffffffffffffffffffffffffff8416600090815260016020526040902054612fd69190613a43565b73ffffffffffffffffffffffffffffffffffffffff808516600090815260016020908152604080832094909455608085015192861682526002905291909120546130209190613866565b73ffffffffffffffffffffffffffffffffffffffff8316600090815260026020908152604080832093909355610120840151600190915291902054612f739190613866565b60a081015173ffffffffffffffffffffffffffffffffffffffff8416600090815260016020526040902054612f2e9190613a43565b805173ffffffffffffffffffffffffffffffffffffffff84166000908152600260205260409020546130cc9190613a43565b73ffffffffffffffffffffffffffffffffffffffff841660009081526002602090815260408083209390935560a0840151600190915291902054612fd69190613a43565b60135462010000900460ff161561319357602080820151306000908152600290925260408220805491929091613147908490613866565b909155505060c08101513060009081526001602052604081208054909190613170908490613866565b909155506131859050303383602001516124cd565b6131933082602001516118db565b6013546301000000900460ff1615610b6557610b658160e0015182604001516133e5565b6000806131c26131ce565b9050612dee8184613a06565b60008060006131db613414565b90925090506131ea81836138a3565b9250505090565b801561320257815160808301525050565b815160085461324a919060ff77010000000000000000000000000000000000000000000000820481169174010000000000000000000000000000000000000000900416613667565b60208301528151600854613299919060ff780100000000000000000000000000000000000000000000000082048116917501000000000000000000000000000000000000000000900416613667565b604083015281516008546132ea919060ff7901000000000000000000000000000000000000000000000000008204811691760100000000000000000000000000000000000000000000900416613667565b606083018190526040830151602084015184516133079190613a43565b6133119190613a43565b61331b9190613a43565b60808301525050565b600061332e6131ce565b835190915061333e908290613a06565b60a084015281156133595760a0830151610120840152505050565b8251613366908290613a06565b60a0840152602083015161337b908290613a06565b60c08401526040830151613390908290613a06565b60e084015260608301516133a5908290613a06565b610100840181905260e084015160c085015160a08601516133c69190613a43565b6133d09190613a43565b6133da9190613a43565b610120840152505050565b81600b546133f39190613a43565b600b8190555080600c600082825461340b9190613866565b90915550505050565b600b546009546000918291825b6005548110156136365782600160006005848154811061346a577f4e487b7100000000000000000000000000000000000000000000000000000000600052603260045260246000fd5b600091825260208083209091015473ffffffffffffffffffffffffffffffffffffffff168352820192909252604001902054118061351657508160026000600584815481106134e2577f4e487b7100000000000000000000000000000000000000000000000000000000600052603260045260246000fd5b600091825260208083209091015473ffffffffffffffffffffffffffffffffffffffff168352820192909252604001902054115b1561352c57600b54600954945094505050509091565b600160006005838154811061356a577f4e487b7100000000000000000000000000000000000000000000000000000000600052603260045260246000fd5b600091825260208083209091015473ffffffffffffffffffffffffffffffffffffffff1683528201929092526040019020546135a69084613a43565b925060026000600583815481106135e6577f4e487b7100000000000000000000000000000000000000000000000000000000600052603260045260246000fd5b600091825260208083209091015473ffffffffffffffffffffffffffffffffffffffff1683528201929092526040019020546136229083613a43565b91508061362e81613aae565b915050613421565b50600954600b5461364791906138a3565b82101561365e57600b546009549350935050509091565b90939092509050565b6000606461367683600a61393d565b61368360ff861687613a06565b61368d91906138a3565b61369791906138a3565b949350505050565b803573ffffffffffffffffffffffffffffffffffffffff811681146136c357600080fd5b919050565b803560ff811681146136c357600080fd5b6000602082840312156136ea578081fd5b612dee8261369f565b60008060408385031215613705578081fd5b61370e8361369f565b915061371c6020840161369f565b90509250929050565b600080600060608486031215613739578081fd5b6137428461369f565b92506137506020850161369f565b9150604084013590509250925092565b60008060408385031215613772578182fd5b61377b8361369f565b946020939093013593505050565b60006020828403121561379a578081fd5b5035919050565b600080604083850312156137b3578182fd5b6137bc836136c8565b915061371c602084016136c8565b6000806000606084860312156137de578283fd5b6137e7846136c8565b9250613750602085016136c8565b6000602080835283518082850152825b8181101561382157858101830151858201604001528201613805565b818111156138325783604083870101525b50601f017fffffffffffffffffffffffffffffffffffffffffffffffffffffffffffffffe016929092016040019392505050565b6000821982111561387957613879613ae7565b500190565b600060ff821660ff84168060ff0382111561389b5761389b613ae7565b019392505050565b6000826138d7577f4e487b710000000000000000000000000000000000000000000000000000000081526012600452602481fd5b500490565b600181815b8085111561393557817fffffffffffffffffffffffffffffffffffffffffffffffffffffffffffffffff0482111561391b5761391b613ae7565b8085161561392857918102915b93841c93908002906138e1565b509250929050565b6000612dee60ff84168360008261395657506001610a07565b8161396357506000610a07565b816001811461397957600281146139835761399f565b6001915050610a07565b60ff84111561399457613994613ae7565b50506001821b610a07565b5060208310610133831016604e8410600b84101617156139c2575081810a610a07565b6139cc83836138dc565b807fffffffffffffffffffffffffffffffffffffffffffffffffffffffffffffffff048211156139fe576139fe613ae7565b029392505050565b6000817fffffffffffffffffffffffffffffffffffffffffffffffffffffffffffffffff0483118215151615613a3e57613a3e613ae7565b500290565b600082821015613a5557613a55613ae7565b500390565b600181811c90821680613a6e57607f821691505b60208210811415613aa8577f4e487b7100000000000000000000000000000000000000000000000000000000600052602260045260246000fd5b50919050565b60007fffffffffffffffffffffffffffffffffffffffffffffffffffffffffffffffff821415613ae057613ae0613ae7565b5060010190565b7f4e487b7100000000000000000000000000000000000000000000000000000000600052601160045260246000fdfea2646970667358221220416e1fa7ada10a87de5d4eae15443863e3bf1f370188607a4bc459d1c02153d664736f6c63430008040033",
  "immutableReferences": {},
  "source": "// SPDX-License-Identifier: MIT\n\npragma solidity ^0.8.4;\n\nimport \"@openzeppelin/contracts/utils/Context.sol\";\nimport \"@openzeppelin/contracts/access/Ownable.sol\";\nimport \"@openzeppelin/contracts/token/ERC20/IERC20.sol\";\n\n// (Uni|Pancake)Swap libs are interchangeable\nimport \"@uniswap/v2-core/contracts/interfaces/IUniswapV2Factory.sol\";\nimport \"@uniswap/v2-core/contracts/interfaces/IUniswapV2Pair.sol\";\nimport \"@uniswap/v2-periphery/contracts/interfaces/IUniswapV2Router01.sol\";\nimport \"@uniswap/v2-periphery/contracts/interfaces/IUniswapV2Router02.sol\";\n\n/*\n    For lines that are marked ERC20 Token Standard, learn more at https://eips.ethereum.org/EIPS/eip-20. \n*/\ncontract ERC20Deflationary is Context, IERC20, Ownable {\n\n    // Keeps track of balances for address that are included in receiving reward.\n    mapping (address => uint256) private _reflectionBalances;\n\n    // Keeps track of balances for address that are excluded from receiving reward.\n    mapping (address => uint256) private _tokenBalances;\n\n    // Keeps track of which address are excluded from fee.\n    mapping (address => bool) private _isExcludedFromFee;\n\n    // Keeps track of which address are excluded from reward.\n    mapping (address => bool) private _isExcludedFromReward;\n    \n    // An array of addresses that are excluded from reward.\n    address[] private _excludedFromReward;\n\n    // ERC20 Token Standard\n    mapping (address => mapping (address => uint256)) private _allowances;\n\n    // Liquidity pool provider router\n    IUniswapV2Router02 internal _uniswapV2Router;\n\n    // This Token and WETH pair contract address.\n    address internal _uniswapV2Pair;\n\n    // Where burnt tokens are sent to. This is an address that no one can have accesses to.\n    address private constant burnAccount = 0xF3d383AAE83C80cCcFeF84eE7e864E1C249089ff;\n    \n    /*\n        Tax rate = (_taxXXX / 10**_tax_XXXDecimals) percent.\n        For example: if _taxBurn is 1 and _taxBurnDecimals is 2.\n        Tax rate = 0.01%\n\n        If you want tax rate for burn to be 5% for example,\n        set _taxBurn to 5 and _taxBurnDecimals to 0.\n        5 * (10 ** 0) = 5\n    */\n\n    // Decimals of taxBurn. Used for have tax less than 1%.\n    uint8 private _taxBurnDecimals;\n\n    // Decimals of taxReward. Used for have tax less than 1%.\n    uint8 private _taxRewardDecimals;\n\n    // Decimals of taxLiquify. Used for have tax less than 1%.\n    uint8 private _taxLiquifyDecimals;\n\n    // This percent of a transaction will be burnt.\n    uint8 private _taxBurn;\n\n    // This percent of a transaction will be redistribute to all holders.\n    uint8 private _taxReward;\n\n    // This percent of a transaction will be added to the liquidity pool. More details at https://github.com/Sheldenshi/ERC20Deflationary.\n    uint8 private _taxLiquify; \n\n    // ERC20 Token Standard\n    uint8 private _decimals;\n\n    // ERC20 Token Standard\n    uint256 private  _totalSupply;\n\n    // Current supply:= total supply - burnt tokens\n    uint256 private _currentSupply;\n\n    // A number that helps distributing fees to all holders respectively.\n    uint256 private _reflectionTotal;\n\n    // Total amount of tokens rewarded / distributing. \n    uint256 private _totalRewarded;\n\n    // Total amount of tokens burnt.\n    uint256 private _totalBurnt;\n\n    // Total amount of tokens locked in the LP (this token and WETH pair).\n    uint256 private _totalTokensLockedInLiquidity;\n\n    // Total amount of ETH locked in the LP (this token and WETH pair).\n    uint256 private _totalETHLockedInLiquidity;\n\n    // A threshold for swap and liquify.\n    uint256 private _minTokensBeforeSwap;\n\n    // ERC20 Token Standard\n    string private _name;\n    // ERC20 Token Standard\n    string private _symbol;\n\n    // Whether a previous call of SwapAndLiquify process is still in process.\n    bool private _inSwapAndLiquify;\n\n    bool private _autoSwapAndLiquifyEnabled;\n    bool private _autoBurnEnabled;\n    bool private _rewardEnabled;\n    \n    // Prevent reentrancy.\n    modifier lockTheSwap {\n        require(!_inSwapAndLiquify, \"Currently in swap and liquify.\");\n        _inSwapAndLiquify = true;\n        _;\n        _inSwapAndLiquify = false;\n    }\n\n    // Return values of _getValues function.\n    struct ValuesFromAmount {\n        // Amount of tokens for to transfer.\n        uint256 amount;\n        // Amount tokens charged for burning.\n        uint256 tBurnFee;\n        // Amount tokens charged to reward.\n        uint256 tRewardFee;\n        // Amount tokens charged to add to liquidity.\n        uint256 tLiquifyFee;\n        // Amount tokens after fees.\n        uint256 tTransferAmount;\n        // Reflection of amount.\n        uint256 rAmount;\n        // Reflection of burn fee.\n        uint256 rBurnFee;\n        // Reflection of reward fee.\n        uint256 rRewardFee;\n        // Reflection of liquify fee.\n        uint256 rLiquifyFee;\n        // Reflection of transfer amount.\n        uint256 rTransferAmount;\n    }\n\n    /*\n        Events\n    */\n    event Burn(address from, uint256 amount);\n    event TaxBurnUpdate(uint8 previousTax, uint8 previousDecimals, uint8 currentTax, uint8 currentDecimal);\n    event TaxRewardUpdate(uint8 previousTax, uint8 previousDecimals, uint8 currentTax, uint8 currentDecimal);\n    event TaxLiquifyUpdate(uint8 previousTax, uint8 previousDecimals, uint8 currentTax, uint8 currentDecimal);\n    event MinTokensBeforeSwapUpdated(uint256 previous, uint256 current);\n    event SwapAndLiquify(\n        uint256 tokensSwapped,\n        uint256 ethReceived,\n        uint256 tokensAddedToLiquidity\n    );\n    event ExcludeAccountFromReward(address account);\n    event IncludeAccountInReward(address account);\n    event ExcludeAccountFromFee(address account);\n    event IncludeAccountInFee(address account);\n    event EnabledAutoBurn();\n    event EnabledReward();\n    event EnabledAutoSwapAndLiquify();\n    event DisabledAutoBurn();\n    event DisabledReward();\n    event DisabledAutoSwapAndLiquify();\n    event Airdrop(uint256 amount);\n    \n    constructor (string memory name_, string memory symbol_, uint8 decimals_, uint256 tokenSupply_) {\n        // Sets the values for `name`, `symbol`, `totalSupply`, `currentSupply`, and `rTotal`.\n        _name = name_;\n        _symbol = symbol_;\n        _decimals = decimals_;\n        _totalSupply = tokenSupply_ * (10 ** decimals_);\n        _currentSupply = _totalSupply;\n        _reflectionTotal = (~uint256(0) - (~uint256(0) % _totalSupply));\n\n        // Mint\n        _reflectionBalances[_msgSender()] = _reflectionTotal;\n        // exclude owner, burnAccount, and this contract from receiving rewards.\n        \n        emit Transfer(address(0), _msgSender(), _totalSupply);\n    }\n\n    // allow the contract to receive ETH\n    receive() external payable {}\n\n    /**\n     * @dev Returns the name of the token.\n     */\n    function name() public view virtual returns (string memory) {\n        return _name;\n    }\n\n    /**\n     * @dev Returns the symbol of the token, usually a shorter version of the\n     * name.\n     */\n    function symbol() public view virtual returns (string memory) {\n        return _symbol;\n    }\n\n    /**\n     * @dev Returns the number of decimals used to get its user representation.\n     * For example, if `decimals` equals `2`, a balance of `505` tokens should\n     * be displayed to a user as `5,05` (`505 / 10 ** 2`).\n     *\n     * NOTE: This information is only used for _display_ purposes: it in\n     * no way affects any of the arithmetic of the contract, including\n     * {IERC20-balanceOf} and {IERC20-transfer}.\n     */\n    function decimals() public view virtual returns (uint8) {\n        return _decimals;\n    }\n\n    /**\n     * @dev Returns the address of this token and WETH pair.\n     */\n    function uniswapV2Pair() public view virtual returns (address) {\n        return _uniswapV2Pair;\n    }\n\n    /**\n     * @dev Returns the current burn tax.\n     */\n    function taxBurn() public view virtual returns (uint8) {\n        return _taxBurn;\n    }\n\n    /**\n     * @dev Returns the current reward tax.\n     */\n    function taxReward() public view virtual returns (uint8) {\n        return _taxReward;\n    }\n\n    /**\n     * @dev Returns the current liquify tax.\n     */\n    function taxLiquify() public view virtual returns (uint8) {\n        return _taxLiquify;\n    }\n\n    /**\n     * @dev Returns the current burn tax decimals.\n     */\n    function taxBurnDecimals() public view virtual returns (uint8) {\n        return _taxBurnDecimals;\n    }\n\n    /**\n     * @dev Returns the current reward tax decimals.\n     */\n    function taxRewardDecimals() public view virtual returns (uint8) {\n        return _taxRewardDecimals;\n    }\n\n    /**\n     * @dev Returns the current liquify tax decimals.\n     */\n    function taxLiquifyDecimals() public view virtual returns (uint8) {\n        return _taxLiquifyDecimals;\n    }\n\n     /**\n     * @dev Returns true if auto burn feature is enabled.\n     */\n    function autoBurnEnabled() public view virtual returns (bool) {\n        return _autoBurnEnabled;\n    }\n\n    /**\n     * @dev Returns true if reward feature is enabled.\n     */\n    function rewardEnabled() public view virtual returns (bool) {\n        return _rewardEnabled;\n    }\n\n    /**\n     * @dev Returns true if auto swap and liquify feature is enabled.\n     */\n    function autoSwapAndLiquifyEnabled() public view virtual returns (bool) {\n        return _autoSwapAndLiquifyEnabled;\n    }\n\n    /**\n     * @dev Returns the threshold before swap and liquify.\n     */\n    function minTokensBeforeSwap() external view virtual returns (uint256) {\n        return _minTokensBeforeSwap;\n    }\n\n    /**\n     * @dev See {IERC20-totalSupply}.\n     */\n    function totalSupply() external view virtual override returns (uint256) {\n        return _totalSupply;\n    }\n\n    /**\n     * @dev Returns current supply of the token. \n     * (currentSupply := totalSupply - totalBurnt)\n     */\n    function currentSupply() external view virtual returns (uint256) {\n        return _currentSupply;\n    }\n\n    /**\n     * @dev Returns the total number of tokens burnt. \n     */\n    function totalBurnt() external view virtual returns (uint256) {\n        return _totalBurnt;\n    }\n\n    /**\n     * @dev Returns the total number of tokens locked in the LP.\n     */\n    function totalTokensLockedInLiquidity() external view virtual returns (uint256) {\n        return _totalTokensLockedInLiquidity;\n    }\n\n    /**\n     * @dev Returns the total number of ETH locked in the LP.\n     */\n    function totalETHLockedInLiquidity() external view virtual returns (uint256) {\n        return _totalETHLockedInLiquidity;\n    }\n\n    /**\n     * @dev See {IERC20-balanceOf}.\n     */\n    function balanceOf(address account) public view virtual override returns (uint256) {\n        if (_isExcludedFromReward[account]) return _tokenBalances[account];\n        return tokenFromReflection(_reflectionBalances[account]);\n    }\n\n    /**\n     * @dev Returns whether an account is excluded from reward. \n     */\n    function isExcludedFromReward(address account) external view returns (bool) {\n        return _isExcludedFromReward[account];\n    }\n\n    /**\n     * @dev Returns whether an account is excluded from fee. \n     */\n    function isExcludedFromFee(address account) external view returns (bool) {\n        return _isExcludedFromFee[account];\n    }\n\n    /**\n     * @dev See {IERC20-transfer}.\n     *\n     * Requirements:\n     *\n     * - `recipient` cannot be the zero address.\n     * - the caller must have a balance of at least `amount`.\n     */\n    function transfer(address recipient, uint256 amount) public virtual override returns (bool) {\n        _transfer(_msgSender(), recipient, amount);\n        return true;\n    }\n\n    /**\n     * @dev See {IERC20-allowance}.\n     */\n    function allowance(address owner, address spender) public view virtual override returns (uint256) {\n        return _allowances[owner][spender];\n    }\n\n    /**\n     * @dev See {IERC20-approve}.\n     *\n     * Requirements:\n     *\n     * - `spender` cannot be the zero address.\n     */\n    function approve(address spender, uint256 amount) public virtual override returns (bool) {\n        _approve(_msgSender(), spender, amount);\n        return true;\n    }\n\n    /**\n     * @dev See {IERC20-transferFrom}.\n     *\n     * Emits an {Approval} event indicating the updated allowance. This is not\n     * required by the EIP. See the note at the beginning of {ERC20}.\n     *\n     * Requirements:\n     *\n     * - `sender` and `recipient` cannot be the zero address.\n     * - `sender` must have a balance of at least `amount`.\n     * - the caller must have allowance for ``sender``'s tokens of at least\n     * `amount`.\n     */\n    function transferFrom(address sender, address recipient, uint256 amount) public virtual override returns (bool) {\n        _transfer(sender, recipient, amount);\n        require(_allowances[sender][_msgSender()] >= amount, \"ERC20: transfer amount exceeds allowance\");\n        _approve(sender, _msgSender(), _allowances[sender][_msgSender()] - amount);\n        return true;\n    }\n\n    /**\n     * @dev Atomically increases the allowance granted to `spender` by the caller.\n     *\n     * This is an alternative to {approve} that can be used as a mitigation for\n     * problems described in {IERC20-approve}.\n     *\n     * Emits an {Approval} event indicating the updated allowance.\n     *\n     * Requirements:\n     *\n     * - `spender` cannot be the zero address.\n     */\n    function increaseAllowance(address spender, uint256 addedValue) public virtual returns (bool) {\n        _approve(_msgSender(), spender, _allowances[_msgSender()][spender] + addedValue);\n        return true;\n    }\n\n    /**\n     * @dev Atomically decreases the allowance granted to `spender` by the caller.\n     *\n     * This is an alternative to {approve} that can be used as a mitigation for\n     * problems described in {IERC20-approve}.\n     *\n     * Emits an {Approval} event indicating the updated allowance.\n     *\n     * Requirements:\n     *\n     * - `spender` cannot be the zero address.\n     * - `spender` must have allowance for the caller of at least\n     * `subtractedValue`.\n     */\n    function decreaseAllowance(address spender, uint256 subtractedValue) public virtual returns (bool) {\n        uint256 currentAllowance = _allowances[_msgSender()][spender];\n        require(currentAllowance >= subtractedValue, \"ERC20: decreased allowance below zero\");\n        _approve(_msgSender(), spender, currentAllowance - subtractedValue);\n        return true;\n    }\n\n    /**\n     * @dev Destroys `amount` tokens from `account`, reducing the\n     * total supply.\n     *\n     * Emits a {Burn} event indicating the amount burnt.\n     * Emits a {Transfer} event with `to` set to the burn address.\n     *\n     * Requirements:\n     *\n     * - `account` cannot be the zero address.\n     * - `account` must have at least `amount` tokens.\n     */\n    function _burn(address account, uint256 amount) internal virtual {\n        require(account != burnAccount, \"ERC20: burn from the burn address\");\n\n        uint256 accountBalance = balanceOf(account);\n        require(accountBalance >= amount, \"ERC20: burn amount exceeds balance\");\n\n        uint256 rAmount = _getRAmount(amount);\n\n        // Transfer from account to the burnAccount\n        if (_isExcludedFromReward[account]) {\n            _tokenBalances[account] -= amount;\n        } \n        _reflectionBalances[account] -= rAmount;\n\n        _tokenBalances[burnAccount] += amount;\n        _reflectionBalances[burnAccount] += rAmount;\n\n        _currentSupply -= amount;\n\n        _totalBurnt += amount;\n\n        emit Burn(account, amount);\n        emit Transfer(account, burnAccount, amount);\n    }\n    \n    function _approve(address owner, address spender, uint256 amount) internal virtual {\n        require(owner != address(0), \"ERC20: approve from the zero address\");\n        require(spender != address(0), \"ERC20: approve to the zero address\");\n\n        _allowances[owner][spender] = amount;\n        emit Approval(owner, spender, amount);\n    }\n\n    function _transfer(address sender, address recipient, uint256 amount) internal virtual {\n        require(sender != address(0), \"ERC20: transfer from the zero address\");\n        require(recipient != address(0), \"ERC20: transfer to the zero address\");\n\n        ValuesFromAmount memory values = _getValues(amount, _isExcludedFromFee[sender]);        \n        if (_isExcludedFromReward[sender] && !_isExcludedFromReward[recipient]) {\n            _transferFromExcluded(sender, recipient, values);\n        } else if (!_isExcludedFromReward[sender] && _isExcludedFromReward[recipient]) {\n            _transferToExcluded(sender, recipient, values);\n        } else if (!_isExcludedFromReward[sender] && !_isExcludedFromReward[recipient]) {\n            _transferStandard(sender, recipient, values);\n        } else if (_isExcludedFromReward[sender] && _isExcludedFromReward[recipient]) {\n            _transferBothExcluded(sender, recipient, values);\n        } else {\n            _transferStandard(sender, recipient, values);\n        }\n        emit Transfer(sender, recipient, values.tTransferAmount);\n\n        if (!_isExcludedFromFee[sender]) {\n            _afterTokenTransfer(values);\n        }\n\n    }\n\n    /**\n      * @dev Performs all the functionalities that are enabled.\n      */\n    function _afterTokenTransfer(ValuesFromAmount memory values) internal virtual {\n        // Burn\n        if (_autoBurnEnabled) {\n            _tokenBalances[address(this)] += values.tBurnFee;\n            _reflectionBalances[address(this)] += values.rBurnFee;\n            _approve(address(this), _msgSender(), values.tBurnFee);\n            burnFrom(address(this), values.tBurnFee);\n        }   \n        \n        \n        // Reflect\n        if (_rewardEnabled) {\n            _distributeFee(values.rRewardFee, values.tRewardFee);\n        }\n        \n\n        \n        \n    }\n\n    /**\n     * @dev Performs transfer between two accounts that are both included in receiving reward.\n     */\n    function _transferStandard(address sender, address recipient, ValuesFromAmount memory values) private {\n        \n    \n        _reflectionBalances[sender] = _reflectionBalances[sender] - values.rAmount;\n        _reflectionBalances[recipient] = _reflectionBalances[recipient] + values.rTransferAmount;   \n\n        \n    }\n\n    /**\n     * @dev Performs transfer from an included account to an excluded account.\n     * (included and excluded from receiving reward.)\n     */\n    function _transferToExcluded(address sender, address recipient, ValuesFromAmount memory values) private {\n        \n        _reflectionBalances[sender] = _reflectionBalances[sender] - values.rAmount;\n        _tokenBalances[recipient] = _tokenBalances[recipient] + values.tTransferAmount;\n        _reflectionBalances[recipient] = _reflectionBalances[recipient] + values.rTransferAmount;    \n\n    }\n\n    /**\n     * @dev Performs transfer from an excluded account to an included account.\n     * (included and excluded from receiving reward.)\n     */\n    function _transferFromExcluded(address sender, address recipient, ValuesFromAmount memory values) private {\n        \n        _tokenBalances[sender] = _tokenBalances[sender] - values.amount;\n        _reflectionBalances[sender] = _reflectionBalances[sender] - values.rAmount;\n        _reflectionBalances[recipient] = _reflectionBalances[recipient] + values.rTransferAmount;   \n\n    }\n\n    /**\n     * @dev Performs transfer between two accounts that are both excluded in receiving reward.\n     */\n    function _transferBothExcluded(address sender, address recipient, ValuesFromAmount memory values) private {\n\n        _tokenBalances[sender] = _tokenBalances[sender] - values.amount;\n        _reflectionBalances[sender] = _reflectionBalances[sender] - values.rAmount;\n        _tokenBalances[recipient] = _tokenBalances[recipient] + values.tTransferAmount;\n        _reflectionBalances[recipient] = _reflectionBalances[recipient] + values.rTransferAmount;        \n\n    }\n    \n    /**\n     * @dev Destroys `amount` tokens from the caller.\n     *\n     */\n    function burn(uint256 amount) public virtual {\n        _burn(_msgSender(), amount);\n    }\n\n    /**\n     * @dev Destroys `amount` tokens from `account`, deducting from the caller's\n     * allowance.\n     *\n     * See {ERC20-_burn} and {ERC20-allowance}.\n     *\n     * Requirements:\n     *\n     * - the caller must have allowance for ``accounts``'s tokens of at least\n     * `amount`.\n     */\n    function burnFrom(address account, uint256 amount) public virtual {\n        uint256 currentAllowance = allowance(account, _msgSender());\n        require(currentAllowance >= amount, \"ERC20: burn amount exceeds allowance\");\n        _approve(account, _msgSender(), currentAllowance - amount);\n        _burn(account, amount);\n    }\n\n    /**\n      * @dev Excludes an account from receiving reward.\n      *\n      * Emits a {ExcludeAccountFromReward} event.\n      *\n      * Requirements:\n      *\n      * - `account` is included in receiving reward.\n      */\n    function _excludeAccountFromReward(address account) internal {\n        require(!_isExcludedFromReward[account], \"Account is already excluded.\");\n\n        if(_reflectionBalances[account] > 0) {\n            _tokenBalances[account] = tokenFromReflection(_reflectionBalances[account]);\n        }\n        _isExcludedFromReward[account] = true;\n        _excludedFromReward.push(account);\n        \n        emit ExcludeAccountFromReward(account);\n    }\n\n    /**\n      * @dev Includes an account from receiving reward.\n      *\n      * Emits a {IncludeAccountInReward} event.\n      *\n      * Requirements:\n      *\n      * - `account` is excluded in receiving reward.\n      */\n    function _includeAccountInReward(address account) internal {\n        require(_isExcludedFromReward[account], \"Account is already included.\");\n\n        for (uint256 i = 0; i < _excludedFromReward.length; i++) {\n            if (_excludedFromReward[i] == account) {\n                _excludedFromReward[i] = _excludedFromReward[_excludedFromReward.length - 1];\n                _tokenBalances[account] = 0;\n                _isExcludedFromReward[account] = false;\n                _excludedFromReward.pop();\n                break;\n            }\n        }\n\n        emit IncludeAccountInReward(account);\n    }\n\n     /**\n      * @dev Excludes an account from fee.\n      *\n      * Emits a {ExcludeAccountFromFee} event.\n      *\n      * Requirements:\n      *\n      * - `account` is included in fee.\n      */\n    function excludeAccountFromFee(address account) internal {\n        require(!_isExcludedFromFee[account], \"Account is already excluded.\");\n\n        _isExcludedFromFee[account] = true;\n\n        emit ExcludeAccountFromFee(account);\n    }\n\n    /**\n      * @dev Includes an account from fee.\n      *\n      * Emits a {IncludeAccountFromFee} event.\n      *\n      * Requirements:\n      *\n      * - `account` is excluded in fee.\n      */\n    function includeAccountInFee(address account) internal {\n        require(_isExcludedFromFee[account], \"Account is already included.\");\n\n        _isExcludedFromFee[account] = false;\n        \n        emit IncludeAccountInFee(account);\n    }\n\n    /**\n     * @dev Airdrop tokens to all holders that are included from reward. \n     *  Requirements:\n     * - the caller must have a balance of at least `amount`.\n     */\n    function airdrop(uint256 amount) public {\n        address sender = _msgSender();\n        //require(!_isExcludedFromReward[sender], \"Excluded addresses cannot call this function\");\n        require(balanceOf(sender) >= amount, \"The caller must have balance >= amount.\");\n        ValuesFromAmount memory values = _getValues(amount, false);\n        if (_isExcludedFromReward[sender]) {\n            _tokenBalances[sender] -= values.amount;\n        }\n        _reflectionBalances[sender] -= values.rAmount;\n        \n        _reflectionTotal = _reflectionTotal - values.rAmount;\n        _totalRewarded += amount ;\n        emit Airdrop(amount);\n    }\n\n    /**\n     * @dev Returns the reflected amount of a token.\n     *  Requirements:\n     * - `amount` must be less than total supply.\n     */\n    function reflectionFromToken(uint256 amount, bool deductTransferFee) internal view returns(uint256) {\n        require(amount <= _totalSupply, \"Amount must be less than supply\");\n        ValuesFromAmount memory values = _getValues(amount, deductTransferFee);\n        return values.rTransferAmount;\n    }\n\n    /**\n     * @dev Used to figure out the balance after reflection.\n     * Requirements:\n     * - `rAmount` must be less than reflectTotal.\n     */\n    function tokenFromReflection(uint256 rAmount) internal view returns(uint256) {\n        require(rAmount <= _reflectionTotal, \"Amount must be less than total reflections\");\n        uint256 currentRate =  _getRate();\n        return rAmount / currentRate;\n    }\n\n    /**\n     * @dev Swap half of contract's token balance for ETH,\n     * and pair it up with the other half to add to the\n     * liquidity pool.\n     *\n     * Emits {SwapAndLiquify} event indicating the amount of tokens swapped to eth,\n     * the amount of ETH added to the LP, and the amount of tokens added to the LP.\n     */\n    function swapAndLiquify(uint256 contractBalance) private lockTheSwap {\n        // Split the contract balance into two halves.\n        uint256 tokensToSwap = contractBalance / 2;\n        uint256 tokensAddToLiquidity = contractBalance - tokensToSwap;\n\n        // Contract's current ETH balance.\n        uint256 initialBalance = address(this).balance;\n\n        // Swap half of the tokens to ETH.\n        swapTokensForEth(tokensToSwap);\n\n        // Figure out the exact amount of tokens received from swapping.\n        uint256 ethAddToLiquify = address(this).balance - initialBalance;\n\n        // Add to the LP of this token and WETH pair (half ETH and half this token).\n        addLiquidity(ethAddToLiquify, tokensAddToLiquidity);\n\n        _totalETHLockedInLiquidity += address(this).balance - initialBalance;\n        _totalTokensLockedInLiquidity += contractBalance - balanceOf(address(this));\n\n        emit SwapAndLiquify(tokensToSwap, ethAddToLiquify, tokensAddToLiquidity);\n    }\n\n\n    /**\n     * @dev Swap `amount` tokens for ETH.\n     *\n     * Emits {Transfer} event. From this contract to the token and WETH Pair.\n     */\n    function swapTokensForEth(uint256 amount) private {\n        // Generate the uniswap pair path of token -> weth\n        address[] memory path = new address[](2);\n        path[0] = address(this);\n        path[1] = _uniswapV2Router.WETH();\n\n        _approve(address(this), address(_uniswapV2Router), amount);\n\n\n        // Swap tokens to ETH\n        _uniswapV2Router.swapExactTokensForETHSupportingFeeOnTransferTokens(\n            amount, \n            0, \n            path, \n            address(this),  // this contract will receive the eth that were swapped from the token\n            block.timestamp + 60 * 1000\n            );\n    }\n    \n    /**\n     * @dev Add `ethAmount` of ETH and `tokenAmount` of tokens to the LP.\n     * Depends on the current rate for the pair between this token and WETH,\n     * `ethAmount` and `tokenAmount` might not match perfectly. \n     * Dust(leftover) ETH or token will be refunded to this contract\n     * (usually very small quantity).\n     *\n     * Emits {Transfer} event. From this contract to the token and WETH Pai.\n     */\n    function addLiquidity(uint256 ethAmount, uint256 tokenAmount) private {\n        _approve(address(this), address(_uniswapV2Router), tokenAmount);\n\n        // Add the ETH and token to LP.\n        // The LP tokens will be sent to burnAccount.\n        // No one will have access to them, so the liquidity will be locked forever.\n        _uniswapV2Router.addLiquidityETH{value: ethAmount}(\n            address(this), \n            tokenAmount, \n            0, // slippage is unavoidable\n            0, // slippage is unavoidable\n            burnAccount, // the LP is sent to burnAccount. \n            block.timestamp + 60 * 1000\n        );\n    }\n\n    /**\n     * @dev Distribute the `tRewardFee` tokens to all holders that are included in receiving reward.\n     * amount received is based on how many token one owns.  \n     */\n    function _distributeFee(uint256 rRewardFee, uint256 tRewardFee) private {\n        // This would decrease rate, thus increase amount reward receive based on one's balance.\n        _reflectionTotal = _reflectionTotal - rRewardFee;\n        _totalRewarded += tRewardFee;\n    }\n    \n    /**\n     * @dev Returns fees and transfer amount in both tokens and reflections.\n     * tXXXX stands for tokenXXXX\n     * rXXXX stands for reflectionXXXX\n     * More details can be found at comments for ValuesForAmount Struct.\n     */\n    function _getValues(uint256 amount, bool deductTransferFee) private view returns (ValuesFromAmount memory) {\n        ValuesFromAmount memory values;\n        values.amount = amount;\n        _getTValues(values, deductTransferFee);\n        _getRValues(values, deductTransferFee);\n        return values;\n    }\n\n    /**\n     * @dev Adds fees and transfer amount in tokens to `values`.\n     * tXXXX stands for tokenXXXX\n     * More details can be found at comments for ValuesForAmount Struct.\n     */\n    function _getTValues(ValuesFromAmount memory values, bool deductTransferFee) view private {\n        \n        if (deductTransferFee) {\n            values.tTransferAmount = values.amount;\n        } else {\n            // calculate fee\n            values.tBurnFee = _calculateTax(values.amount, _taxBurn, _taxBurnDecimals);\n            values.tRewardFee = _calculateTax(values.amount, _taxReward, _taxRewardDecimals);\n            values.tLiquifyFee = _calculateTax(values.amount, _taxLiquify, _taxLiquifyDecimals);\n            \n            // amount after fee\n            values.tTransferAmount = values.amount - values.tBurnFee - values.tRewardFee - values.tLiquifyFee;\n        }\n        \n    }\n\n    /**\n     * @dev Adds fees and transfer amount in reflection to `values`.\n     * rXXXX stands for reflectionXXXX\n     * More details can be found at comments for ValuesForAmount Struct.\n     */\n    function _getRValues(ValuesFromAmount memory values, bool deductTransferFee) view private {\n        uint256 currentRate = _getRate();\n\n        values.rAmount = values.amount * currentRate;\n\n        if (deductTransferFee) {\n            values.rTransferAmount = values.rAmount;\n        } else {\n            values.rAmount = values.amount * currentRate;\n            values.rBurnFee = values.tBurnFee * currentRate;\n            values.rRewardFee = values.tRewardFee * currentRate;\n            values.rLiquifyFee = values.tLiquifyFee * currentRate;\n            values.rTransferAmount = values.rAmount - values.rBurnFee - values.rRewardFee - values.rLiquifyFee;\n        }\n        \n    }\n\n    /**\n     * @dev Returns `amount` in reflection.\n     */\n    function _getRAmount(uint256 amount) private view returns (uint256) {\n        uint256 currentRate = _getRate();\n        return amount * currentRate;\n    }\n\n    /**\n     * @dev Returns the current reflection rate.\n     */\n    function _getRate() private view returns(uint256) {\n        (uint256 rSupply, uint256 tSupply) = _getCurrentSupply();\n        return rSupply / tSupply;\n    }\n\n    /**\n     * @dev Returns the current reflection supply and token supply.\n     */\n    function _getCurrentSupply() private view returns(uint256, uint256) {\n        uint256 rSupply = _reflectionTotal;\n        uint256 tSupply = _totalSupply;      \n        for (uint256 i = 0; i < _excludedFromReward.length; i++) {\n            if (_reflectionBalances[_excludedFromReward[i]] > rSupply || _tokenBalances[_excludedFromReward[i]] > tSupply) return (_reflectionTotal, _totalSupply);\n            rSupply = rSupply - _reflectionBalances[_excludedFromReward[i]];\n            tSupply = tSupply - _tokenBalances[_excludedFromReward[i]];\n        }\n        if (rSupply < _reflectionTotal / _totalSupply) return (_reflectionTotal, _totalSupply);\n        return (rSupply, tSupply);\n    }\n\n    /**\n     * @dev Returns fee based on `amount` and `taxRate`\n     */\n    function _calculateTax(uint256 amount, uint8 tax, uint8 taxDecimals_) private pure returns (uint256) {\n        return amount * tax / (10 ** taxDecimals_) / (10 ** 2);\n    }\n\n    /*\n        Owner functions\n    */\n\n    /**\n     * @dev Enables the auto burn feature.\n     * Burn transaction amount * `taxBurn_` amount of tokens each transaction when enabled.\n     *\n     * Emits a {EnabledAutoBurn} event.\n     *\n     * Requirements:\n     *\n     * - auto burn feature mush be disabled.\n     * - tax must be greater than 0.\n     * - tax decimals + 2 must be less than token decimals. \n     * (because tax rate is in percentage)\n     */\n    function enableAutoBurn(uint8 taxBurn_, uint8 taxBurnDecimals_) public onlyOwner {\n        require(!_autoBurnEnabled, \"Auto burn feature is already enabled.\");\n        require(taxBurn_ > 0, \"Tax must be greater than 0.\");\n        require(taxBurnDecimals_ + 2  <= decimals(), \"Tax decimals must be less than token decimals - 2\");\n        \n        _autoBurnEnabled = true;\n        setTaxBurn(taxBurn_, taxBurnDecimals_);\n        \n        emit EnabledAutoBurn();\n    }\n\n    /**\n     * @dev Enables the reward feature.\n     * Distribute transaction amount * `taxReward_` amount of tokens each transaction when enabled.\n     *\n     * Emits a {EnabledReward} event.\n     *\n     * Requirements:\n     *\n     * - reward feature mush be disabled.\n     * - tax must be greater than 0.\n     * - tax decimals + 2 must be less than token decimals. \n     * (because tax rate is in percentage)\n    */\n    function enableReward(uint8 taxReward_, uint8 taxRewardDecimals_) public onlyOwner {\n        require(!_rewardEnabled, \"Reward feature is already enabled.\");\n        require(taxReward_ > 0, \"Tax must be greater than 0.\");\n        require(taxRewardDecimals_ + 2  <= decimals(), \"Tax decimals must be less than token decimals - 2\");\n\n        _rewardEnabled = true;\n        setTaxReward(taxReward_, taxRewardDecimals_);\n\n        emit EnabledReward();\n    }\n\n    /**\n      * @dev Enables the auto swap and liquify feature.\n      * Swaps half of transaction amount * `taxLiquify_` amount of tokens \n      * to ETH and pair with the other half of tokens to the LP each transaction when enabled.\n      *\n      * Emits a {EnabledAutoSwapAndLiquify} event.\n      *\n      * Requirements:\n      *\n      * - auto swap and liquify feature mush be disabled.\n      * - tax must be greater than 0.\n      * - tax decimals + 2 must be less than token decimals. \n      * (because tax rate is in percentage)\n      */\n    function enableAutoSwapAndLiquify(uint8 taxLiquify_, uint8 taxLiquifyDecimals_,uint256 minTokensBeforeSwap_) public onlyOwner {\n        require(!_autoSwapAndLiquifyEnabled, \"Auto swap and liquify feature is already enabled.\");\n        require(taxLiquify_ > 0, \"Tax must be greater than 0.\");\n        require(taxLiquifyDecimals_ + 2  <= decimals(), \"Tax decimals must be less than token decimals - 2\");\n\n        _minTokensBeforeSwap = minTokensBeforeSwap_;\n\n\n        // enable\n        _autoSwapAndLiquifyEnabled = true;\n        setTaxLiquify(taxLiquify_, taxLiquifyDecimals_);\n        \n        emit EnabledAutoSwapAndLiquify();\n    }\n\n    /**\n     * @dev Disables the auto burn feature.\n     *\n     * Emits a {DisabledAutoBurn} event.\n     *\n     * Requirements:\n     *\n     * - auto burn feature mush be enabled.\n     */\n    function disableAutoBurn() public onlyOwner {\n        require(_autoBurnEnabled, \"Auto burn feature is already disabled.\");\n\n        setTaxBurn(0, 0);\n        _autoBurnEnabled = false;\n        \n        emit DisabledAutoBurn();\n    }\n\n    /**\n      * @dev Disables the reward feature.\n      *\n      * Emits a {DisabledReward} event.\n      *\n      * Requirements:\n      *\n      * - reward feature mush be enabled.\n      */\n    function disableReward() public onlyOwner {\n        require(_rewardEnabled, \"Reward feature is already disabled.\");\n\n        setTaxReward(0, 0);\n        _rewardEnabled = false;\n        \n        emit DisabledReward();\n    }\n\n    /**\n      * @dev Disables the auto swap and liquify feature.\n      *\n      * Emits a {DisabledAutoSwapAndLiquify} event.\n      *\n      * Requirements:\n      *\n      * - auto swap and liquify feature mush be enabled.\n      */\n    function disableAutoSwapAndLiquify() public onlyOwner {\n        require(_autoSwapAndLiquifyEnabled, \"Auto swap and liquify feature is already disabled.\");\n\n        setTaxLiquify(0, 0);\n        _autoSwapAndLiquifyEnabled = false;\n         \n        emit DisabledAutoSwapAndLiquify();\n    }\n\n     /**\n      * @dev Updates `_minTokensBeforeSwap`\n      *\n      * Emits a {MinTokensBeforeSwap} event.\n      *\n      * Requirements:\n      *\n      * - `minTokensBeforeSwap_` must be less than _currentSupply.\n      */\n    function setMinTokensBeforeSwap(uint256 minTokensBeforeSwap_) public onlyOwner {\n        require(minTokensBeforeSwap_ < _currentSupply, \"minTokensBeforeSwap must be higher than current supply.\");\n\n        uint256 previous = _minTokensBeforeSwap;\n        _minTokensBeforeSwap = minTokensBeforeSwap_;\n\n        emit MinTokensBeforeSwapUpdated(previous, _minTokensBeforeSwap);\n    }\n\n    /**\n      * @dev Updates taxBurn\n      *\n      * Emits a {TaxBurnUpdate} event.\n      *\n      * Requirements:\n      *\n      * - auto burn feature must be enabled.\n      * - total tax rate must be less than 100%.\n      */\n    function setTaxBurn(uint8 taxBurn_, uint8 taxBurnDecimals_) public onlyOwner {\n        require(_autoBurnEnabled, \"Auto burn feature must be enabled. Try the EnableAutoBurn function.\");\n        require(taxBurn_ + _taxReward + _taxLiquify < 100, \"Tax fee too high.\");\n\n        uint8 previousTax = _taxBurn;\n        uint8 previousDecimals = _taxBurnDecimals;\n        _taxBurn = taxBurn_;\n        _taxBurnDecimals = taxBurnDecimals_;\n\n        emit TaxBurnUpdate(previousTax, previousDecimals, taxBurn_, taxBurnDecimals_);\n    }\n\n    /**\n      * @dev Updates taxReward\n      *\n      * Emits a {TaxRewardUpdate} event.\n      *\n      * Requirements:\n      *\n      * - reward feature must be enabled.\n      * - total tax rate must be less than 100%.\n      */\n    function setTaxReward(uint8 taxReward_, uint8 taxRewardDecimals_) public onlyOwner {\n        require(_rewardEnabled, \"Reward feature must be enabled. Try the EnableReward function.\");\n        require(_taxBurn + taxReward_ + _taxLiquify < 100, \"Tax fee too high.\");\n\n        uint8 previousTax = _taxReward;\n        uint8 previousDecimals = _taxRewardDecimals;\n        _taxReward = taxReward_;\n        _taxBurnDecimals = taxRewardDecimals_;\n\n        emit TaxRewardUpdate(previousTax, previousDecimals, taxReward_, taxRewardDecimals_);\n    }\n\n    /**\n      * @dev Updates taxLiquify\n      *\n      * Emits a {TaxLiquifyUpdate} event.\n      *\n      * Requirements:\n      *\n      * - auto swap and liquify feature must be enabled.\n      * - total tax rate must be less than 100%.\n      */\n    function setTaxLiquify(uint8 taxLiquify_, uint8 taxLiquifyDecimals_) public onlyOwner {\n        require(_autoSwapAndLiquifyEnabled, \"Auto swap and liquify feature must be enabled. Try the EnableAutoSwapAndLiquify function.\");\n        require(_taxBurn + _taxReward + taxLiquify_ < 100, \"Tax fee too high.\");\n\n        uint8 previousTax = _taxLiquify;\n        uint8 previousDecimals = _taxLiquifyDecimals;\n        _taxLiquify = taxLiquify_;\n        _taxLiquifyDecimals = taxLiquifyDecimals_;\n\n        emit TaxLiquifyUpdate(previousTax, previousDecimals, taxLiquify_, taxLiquifyDecimals_);\n    }\n\n}\n",
  "sourcePath": "C:\\Users\\omrel\\Desktop\\ERC20Deflationary-master\\contracts\\ERC20Deflationary.sol",
  "compiler": {
    "name": "solc",
    "version": "0.8.4+commit.c7e474f2.Emscripten.clang"
  },
  "schemaVersion": "3.4.10",
  "updatedAt": "2022-12-27T09:56:47.405Z",
  "devdoc": {
    "kind": "dev",
    "methods": {
      "airdrop(uint256)": {
        "details": "Airdrop tokens to all holders that are included from reward.   Requirements: - the caller must have a balance of at least `amount`."
      },
      "allowance(address,address)": {
        "details": "See {IERC20-allowance}."
      },
      "approve(address,uint256)": {
        "details": "See {IERC20-approve}. Requirements: - `spender` cannot be the zero address."
      },
      "autoBurnEnabled()": {
        "details": "Returns true if auto burn feature is enabled."
      },
      "autoSwapAndLiquifyEnabled()": {
        "details": "Returns true if auto swap and liquify feature is enabled."
      },
      "balanceOf(address)": {
        "details": "See {IERC20-balanceOf}."
      },
      "burn(uint256)": {
        "details": "Destroys `amount` tokens from the caller."
      },
      "burnFrom(address,uint256)": {
        "details": "Destroys `amount` tokens from `account`, deducting from the caller's allowance. See {ERC20-_burn} and {ERC20-allowance}. Requirements: - the caller must have allowance for ``accounts``'s tokens of at least `amount`."
      },
      "currentSupply()": {
        "details": "Returns current supply of the token.  (currentSupply := totalSupply - totalBurnt)"
      },
      "decimals()": {
        "details": "Returns the number of decimals used to get its user representation. For example, if `decimals` equals `2`, a balance of `505` tokens should be displayed to a user as `5,05` (`505 / 10 ** 2`). NOTE: This information is only used for _display_ purposes: it in no way affects any of the arithmetic of the contract, including {IERC20-balanceOf} and {IERC20-transfer}."
      },
      "decreaseAllowance(address,uint256)": {
        "details": "Atomically decreases the allowance granted to `spender` by the caller. This is an alternative to {approve} that can be used as a mitigation for problems described in {IERC20-approve}. Emits an {Approval} event indicating the updated allowance. Requirements: - `spender` cannot be the zero address. - `spender` must have allowance for the caller of at least `subtractedValue`."
      },
      "disableAutoBurn()": {
        "details": "Disables the auto burn feature. Emits a {DisabledAutoBurn} event. Requirements: - auto burn feature mush be enabled."
      },
      "disableAutoSwapAndLiquify()": {
        "details": "Disables the auto swap and liquify feature. Emits a {DisabledAutoSwapAndLiquify} event. Requirements: - auto swap and liquify feature mush be enabled."
      },
      "disableReward()": {
        "details": "Disables the reward feature. Emits a {DisabledReward} event. Requirements: - reward feature mush be enabled."
      },
      "enableAutoBurn(uint8,uint8)": {
        "details": "Enables the auto burn feature. Burn transaction amount * `taxBurn_` amount of tokens each transaction when enabled. Emits a {EnabledAutoBurn} event. Requirements: - auto burn feature mush be disabled. - tax must be greater than 0. - tax decimals + 2 must be less than token decimals.  (because tax rate is in percentage)"
      },
      "enableAutoSwapAndLiquify(uint8,uint8,uint256)": {
        "details": "Enables the auto swap and liquify feature. Swaps half of transaction amount * `taxLiquify_` amount of tokens  to ETH and pair with the other half of tokens to the LP each transaction when enabled. Emits a {EnabledAutoSwapAndLiquify} event. Requirements: - auto swap and liquify feature mush be disabled. - tax must be greater than 0. - tax decimals + 2 must be less than token decimals.  (because tax rate is in percentage)"
      },
      "enableReward(uint8,uint8)": {
        "details": "Enables the reward feature. Distribute transaction amount * `taxReward_` amount of tokens each transaction when enabled. Emits a {EnabledReward} event. Requirements: - reward feature mush be disabled. - tax must be greater than 0. - tax decimals + 2 must be less than token decimals.  (because tax rate is in percentage)"
      },
      "increaseAllowance(address,uint256)": {
        "details": "Atomically increases the allowance granted to `spender` by the caller. This is an alternative to {approve} that can be used as a mitigation for problems described in {IERC20-approve}. Emits an {Approval} event indicating the updated allowance. Requirements: - `spender` cannot be the zero address."
      },
      "isExcludedFromFee(address)": {
        "details": "Returns whether an account is excluded from fee. "
      },
      "isExcludedFromReward(address)": {
        "details": "Returns whether an account is excluded from reward. "
      },
      "minTokensBeforeSwap()": {
        "details": "Returns the threshold before swap and liquify."
      },
      "name()": {
        "details": "Returns the name of the token."
      },
      "owner()": {
        "details": "Returns the address of the current owner."
      },
      "renounceOwnership()": {
        "details": "Leaves the contract without owner. It will not be possible to call `onlyOwner` functions anymore. Can only be called by the current owner. NOTE: Renouncing ownership will leave the contract without an owner, thereby removing any functionality that is only available to the owner."
      },
      "rewardEnabled()": {
        "details": "Returns true if reward feature is enabled."
      },
      "setMinTokensBeforeSwap(uint256)": {
        "details": "Updates `_minTokensBeforeSwap` Emits a {MinTokensBeforeSwap} event. Requirements: - `minTokensBeforeSwap_` must be less than _currentSupply."
      },
      "setTaxBurn(uint8,uint8)": {
        "details": "Updates taxBurn Emits a {TaxBurnUpdate} event. Requirements: - auto burn feature must be enabled. - total tax rate must be less than 100%."
      },
      "setTaxLiquify(uint8,uint8)": {
        "details": "Updates taxLiquify Emits a {TaxLiquifyUpdate} event. Requirements: - auto swap and liquify feature must be enabled. - total tax rate must be less than 100%."
      },
      "setTaxReward(uint8,uint8)": {
        "details": "Updates taxReward Emits a {TaxRewardUpdate} event. Requirements: - reward feature must be enabled. - total tax rate must be less than 100%."
      },
      "symbol()": {
        "details": "Returns the symbol of the token, usually a shorter version of the name."
      },
      "taxBurn()": {
        "details": "Returns the current burn tax."
      },
      "taxBurnDecimals()": {
        "details": "Returns the current burn tax decimals."
      },
      "taxLiquify()": {
        "details": "Returns the current liquify tax."
      },
      "taxLiquifyDecimals()": {
        "details": "Returns the current liquify tax decimals."
      },
      "taxReward()": {
        "details": "Returns the current reward tax."
      },
      "taxRewardDecimals()": {
        "details": "Returns the current reward tax decimals."
      },
      "totalBurnt()": {
        "details": "Returns the total number of tokens burnt. "
      },
      "totalETHLockedInLiquidity()": {
        "details": "Returns the total number of ETH locked in the LP."
      },
      "totalSupply()": {
        "details": "See {IERC20-totalSupply}."
      },
      "totalTokensLockedInLiquidity()": {
        "details": "Returns the total number of tokens locked in the LP."
      },
      "transfer(address,uint256)": {
        "details": "See {IERC20-transfer}. Requirements: - `recipient` cannot be the zero address. - the caller must have a balance of at least `amount`."
      },
      "transferFrom(address,address,uint256)": {
        "details": "See {IERC20-transferFrom}. Emits an {Approval} event indicating the updated allowance. This is not required by the EIP. See the note at the beginning of {ERC20}. Requirements: - `sender` and `recipient` cannot be the zero address. - `sender` must have a balance of at least `amount`. - the caller must have allowance for ``sender``'s tokens of at least `amount`."
      },
      "transferOwnership(address)": {
        "details": "Transfers ownership of the contract to a new account (`newOwner`). Can only be called by the current owner."
      },
      "uniswapV2Pair()": {
        "details": "Returns the address of this token and WETH pair."
      }
    },
    "version": 1
  },
  "userdoc": {
    "kind": "user",
    "methods": {},
    "version": 1
  }
}