{
  "contractName": "ExampleToken",
  "abi": [
    {
      "inputs": [],
      "stateMutability": "nonpayable",
      "type": "constructor"
    },
    {
      "anonymous": false,
      "inputs": [
        {
          "indexed": false,
          "internalType": "uint256",
          "name": "amount",
          "type": "uint256"
        }
      ],
      "name": "Airdrop",
      "type": "event"
    },
    {
      "anonymous": false,
      "inputs": [
        {
          "indexed": true,
          "internalType": "address",
          "name": "owner",
          "type": "address"
        },
        {
          "indexed": true,
          "internalType": "address",
          "name": "spender",
          "type": "address"
        },
        {
          "indexed": false,
          "internalType": "uint256",
          "name": "value",
          "type": "uint256"
        }
      ],
      "name": "Approval",
      "type": "event"
    },
    {
      "anonymous": false,
      "inputs": [
        {
          "indexed": false,
          "internalType": "address",
          "name": "from",
          "type": "address"
        },
        {
          "indexed": false,
          "internalType": "uint256",
          "name": "amount",
          "type": "uint256"
        }
      ],
      "name": "Burn",
      "type": "event"
    },
    {
      "anonymous": false,
      "inputs": [],
      "name": "DisabledAutoBurn",
      "type": "event"
    },
    {
      "anonymous": false,
      "inputs": [],
      "name": "DisabledAutoSwapAndLiquify",
      "type": "event"
    },
    {
      "anonymous": false,
      "inputs": [],
      "name": "DisabledReward",
      "type": "event"
    },
    {
      "anonymous": false,
      "inputs": [],
      "name": "EnabledAutoBurn",
      "type": "event"
    },
    {
      "anonymous": false,
      "inputs": [],
      "name": "EnabledAutoSwapAndLiquify",
      "type": "event"
    },
    {
      "anonymous": false,
      "inputs": [],
      "name": "EnabledReward",
      "type": "event"
    },
    {
      "anonymous": false,
      "inputs": [
        {
          "indexed": false,
          "internalType": "address",
          "name": "account",
          "type": "address"
        }
      ],
      "name": "ExcludeAccountFromFee",
      "type": "event"
    },
    {
      "anonymous": false,
      "inputs": [
        {
          "indexed": false,
          "internalType": "address",
          "name": "account",
          "type": "address"
        }
      ],
      "name": "ExcludeAccountFromReward",
      "type": "event"
    },
    {
      "anonymous": false,
      "inputs": [
        {
          "indexed": false,
          "internalType": "address",
          "name": "account",
          "type": "address"
        }
      ],
      "name": "IncludeAccountInFee",
      "type": "event"
    },
    {
      "anonymous": false,
      "inputs": [
        {
          "indexed": false,
          "internalType": "address",
          "name": "account",
          "type": "address"
        }
      ],
      "name": "IncludeAccountInReward",
      "type": "event"
    },
    {
      "anonymous": false,
      "inputs": [
        {
          "indexed": false,
          "internalType": "uint256",
          "name": "previous",
          "type": "uint256"
        },
        {
          "indexed": false,
          "internalType": "uint256",
          "name": "current",
          "type": "uint256"
        }
      ],
      "name": "MinTokensBeforeSwapUpdated",
      "type": "event"
    },
    {
      "anonymous": false,
      "inputs": [
        {
          "indexed": true,
          "internalType": "address",
          "name": "previousOwner",
          "type": "address"
        },
        {
          "indexed": true,
          "internalType": "address",
          "name": "newOwner",
          "type": "address"
        }
      ],
      "name": "OwnershipTransferred",
      "type": "event"
    },
    {
      "anonymous": false,
      "inputs": [
        {
          "indexed": false,
          "internalType": "uint256",
          "name": "tokensSwapped",
          "type": "uint256"
        },
        {
          "indexed": false,
          "internalType": "uint256",
          "name": "ethReceived",
          "type": "uint256"
        },
        {
          "indexed": false,
          "internalType": "uint256",
          "name": "tokensAddedToLiquidity",
          "type": "uint256"
        }
      ],
      "name": "SwapAndLiquify",
      "type": "event"
    },
    {
      "anonymous": false,
      "inputs": [
        {
          "indexed": false,
          "internalType": "uint8",
          "name": "previousTax",
          "type": "uint8"
        },
        {
          "indexed": false,
          "internalType": "uint8",
          "name": "previousDecimals",
          "type": "uint8"
        },
        {
          "indexed": false,
          "internalType": "uint8",
          "name": "currentTax",
          "type": "uint8"
        },
        {
          "indexed": false,
          "internalType": "uint8",
          "name": "currentDecimal",
          "type": "uint8"
        }
      ],
      "name": "TaxBurnUpdate",
      "type": "event"
    },
    {
      "anonymous": false,
      "inputs": [
        {
          "indexed": false,
          "internalType": "uint8",
          "name": "previousTax",
          "type": "uint8"
        },
        {
          "indexed": false,
          "internalType": "uint8",
          "name": "previousDecimals",
          "type": "uint8"
        },
        {
          "indexed": false,
          "internalType": "uint8",
          "name": "currentTax",
          "type": "uint8"
        },
        {
          "indexed": false,
          "internalType": "uint8",
          "name": "currentDecimal",
          "type": "uint8"
        }
      ],
      "name": "TaxLiquifyUpdate",
      "type": "event"
    },
    {
      "anonymous": false,
      "inputs": [
        {
          "indexed": false,
          "internalType": "uint8",
          "name": "previousTax",
          "type": "uint8"
        },
        {
          "indexed": false,
          "internalType": "uint8",
          "name": "previousDecimals",
          "type": "uint8"
        },
        {
          "indexed": false,
          "internalType": "uint8",
          "name": "currentTax",
          "type": "uint8"
        },
        {
          "indexed": false,
          "internalType": "uint8",
          "name": "currentDecimal",
          "type": "uint8"
        }
      ],
      "name": "TaxRewardUpdate",
      "type": "event"
    },
    {
      "anonymous": false,
      "inputs": [
        {
          "indexed": true,
          "internalType": "address",
          "name": "from",
          "type": "address"
        },
        {
          "indexed": true,
          "internalType": "address",
          "name": "to",
          "type": "address"
        },
        {
          "indexed": false,
          "internalType": "uint256",
          "name": "value",
          "type": "uint256"
        }
      ],
      "name": "Transfer",
      "type": "event"
    },
    {
      "inputs": [
        {
          "internalType": "uint256",
          "name": "amount",
          "type": "uint256"
        }
      ],
      "name": "airdrop",
      "outputs": [],
      "stateMutability": "nonpayable",
      "type": "function"
    },
    {
      "inputs": [
        {
          "internalType": "address",
          "name": "owner",
          "type": "address"
        },
        {
          "internalType": "address",
          "name": "spender",
          "type": "address"
        }
      ],
      "name": "allowance",
      "outputs": [
        {
          "internalType": "uint256",
          "name": "",
          "type": "uint256"
        }
      ],
      "stateMutability": "view",
      "type": "function",
      "constant": true
    },
    {
      "inputs": [
        {
          "internalType": "address",
          "name": "spender",
          "type": "address"
        },
        {
          "internalType": "uint256",
          "name": "amount",
          "type": "uint256"
        }
      ],
      "name": "approve",
      "outputs": [
        {
          "internalType": "bool",
          "name": "",
          "type": "bool"
        }
      ],
      "stateMutability": "nonpayable",
      "type": "function"
    },
    {
      "inputs": [],
      "name": "autoBurnEnabled",
      "outputs": [
        {
          "internalType": "bool",
          "name": "",
          "type": "bool"
        }
      ],
      "stateMutability": "view",
      "type": "function",
      "constant": true
    },
    {
      "inputs": [],
      "name": "autoSwapAndLiquifyEnabled",
      "outputs": [
        {
          "internalType": "bool",
          "name": "",
          "type": "bool"
        }
      ],
      "stateMutability": "view",
      "type": "function",
      "constant": true
    },
    {
      "inputs": [
        {
          "internalType": "address",
          "name": "account",
          "type": "address"
        }
      ],
      "name": "balanceOf",
      "outputs": [
        {
          "internalType": "uint256",
          "name": "",
          "type": "uint256"
        }
      ],
      "stateMutability": "view",
      "type": "function",
      "constant": true
    },
    {
      "inputs": [
        {
          "internalType": "uint256",
          "name": "amount",
          "type": "uint256"
        }
      ],
      "name": "burn",
      "outputs": [],
      "stateMutability": "nonpayable",
      "type": "function"
    },
    {
      "inputs": [
        {
          "internalType": "address",
          "name": "account",
          "type": "address"
        },
        {
          "internalType": "uint256",
          "name": "amount",
          "type": "uint256"
        }
      ],
      "name": "burnFrom",
      "outputs": [],
      "stateMutability": "nonpayable",
      "type": "function"
    },
    {
      "inputs": [],
      "name": "currentSupply",
      "outputs": [
        {
          "internalType": "uint256",
          "name": "",
          "type": "uint256"
        }
      ],
      "stateMutability": "view",
      "type": "function",
      "constant": true
    },
    {
      "inputs": [],
      "name": "decimals",
      "outputs": [
        {
          "internalType": "uint8",
          "name": "",
          "type": "uint8"
        }
      ],
      "stateMutability": "view",
      "type": "function",
      "constant": true
    },
    {
      "inputs": [
        {
          "internalType": "address",
          "name": "spender",
          "type": "address"
        },
        {
          "internalType": "uint256",
          "name": "subtractedValue",
          "type": "uint256"
        }
      ],
      "name": "decreaseAllowance",
      "outputs": [
        {
          "internalType": "bool",
          "name": "",
          "type": "bool"
        }
      ],
      "stateMutability": "nonpayable",
      "type": "function"
    },
    {
      "inputs": [],
      "name": "disableAutoBurn",
      "outputs": [],
      "stateMutability": "nonpayable",
      "type": "function"
    },
    {
      "inputs": [],
      "name": "disableAutoSwapAndLiquify",
      "outputs": [],
      "stateMutability": "nonpayable",
      "type": "function"
    },
    {
      "inputs": [],
      "name": "disableReward",
      "outputs": [],
      "stateMutability": "nonpayable",
      "type": "function"
    },
    {
      "inputs": [
        {
          "internalType": "uint8",
          "name": "taxBurn_",
          "type": "uint8"
        },
        {
          "internalType": "uint8",
          "name": "taxBurnDecimals_",
          "type": "uint8"
        }
      ],
      "name": "enableAutoBurn",
      "outputs": [],
      "stateMutability": "nonpayable",
      "type": "function"
    },
    {
      "inputs": [
        {
          "internalType": "uint8",
          "name": "taxLiquify_",
          "type": "uint8"
        },
        {
          "internalType": "uint8",
          "name": "taxLiquifyDecimals_",
          "type": "uint8"
        },
        {
          "internalType": "uint256",
          "name": "minTokensBeforeSwap_",
          "type": "uint256"
        }
      ],
      "name": "enableAutoSwapAndLiquify",
      "outputs": [],
      "stateMutability": "nonpayable",
      "type": "function"
    },
    {
      "inputs": [
        {
          "internalType": "uint8",
          "name": "taxReward_",
          "type": "uint8"
        },
        {
          "internalType": "uint8",
          "name": "taxRewardDecimals_",
          "type": "uint8"
        }
      ],
      "name": "enableReward",
      "outputs": [],
      "stateMutability": "nonpayable",
      "type": "function"
    },
    {
      "inputs": [
        {
          "internalType": "address",
          "name": "spender",
          "type": "address"
        },
        {
          "internalType": "uint256",
          "name": "addedValue",
          "type": "uint256"
        }
      ],
      "name": "increaseAllowance",
      "outputs": [
        {
          "internalType": "bool",
          "name": "",
          "type": "bool"
        }
      ],
      "stateMutability": "nonpayable",
      "type": "function"
    },
    {
      "inputs": [
        {
          "internalType": "address",
          "name": "account",
          "type": "address"
        }
      ],
      "name": "isExcludedFromFee",
      "outputs": [
        {
          "internalType": "bool",
          "name": "",
          "type": "bool"
        }
      ],
      "stateMutability": "view",
      "type": "function",
      "constant": true
    },
    {
      "inputs": [
        {
          "internalType": "address",
          "name": "account",
          "type": "address"
        }
      ],
      "name": "isExcludedFromReward",
      "outputs": [
        {
          "internalType": "bool",
          "name": "",
          "type": "bool"
        }
      ],
      "stateMutability": "view",
      "type": "function",
      "constant": true
    },
    {
      "inputs": [],
      "name": "minTokensBeforeSwap",
      "outputs": [
        {
          "internalType": "uint256",
          "name": "",
          "type": "uint256"
        }
      ],
      "stateMutability": "view",
      "type": "function",
      "constant": true
    },
    {
      "inputs": [],
      "name": "name",
      "outputs": [
        {
          "internalType": "string",
          "name": "",
          "type": "string"
        }
      ],
      "stateMutability": "view",
      "type": "function",
      "constant": true
    },
    {
      "inputs": [],
      "name": "owner",
      "outputs": [
        {
          "internalType": "address",
          "name": "",
          "type": "address"
        }
      ],
      "stateMutability": "view",
      "type": "function",
      "constant": true
    },
    {
      "inputs": [],
      "name": "renounceOwnership",
      "outputs": [],
      "stateMutability": "nonpayable",
      "type": "function"
    },
    {
      "inputs": [],
      "name": "rewardEnabled",
      "outputs": [
        {
          "internalType": "bool",
          "name": "",
          "type": "bool"
        }
      ],
      "stateMutability": "view",
      "type": "function",
      "constant": true
    },
    {
      "inputs": [
        {
          "internalType": "uint256",
          "name": "minTokensBeforeSwap_",
          "type": "uint256"
        }
      ],
      "name": "setMinTokensBeforeSwap",
      "outputs": [],
      "stateMutability": "nonpayable",
      "type": "function"
    },
    {
      "inputs": [
        {
          "internalType": "uint8",
          "name": "taxBurn_",
          "type": "uint8"
        },
        {
          "internalType": "uint8",
          "name": "taxBurnDecimals_",
          "type": "uint8"
        }
      ],
      "name": "setTaxBurn",
      "outputs": [],
      "stateMutability": "nonpayable",
      "type": "function"
    },
    {
      "inputs": [
        {
          "internalType": "uint8",
          "name": "taxLiquify_",
          "type": "uint8"
        },
        {
          "internalType": "uint8",
          "name": "taxLiquifyDecimals_",
          "type": "uint8"
        }
      ],
      "name": "setTaxLiquify",
      "outputs": [],
      "stateMutability": "nonpayable",
      "type": "function"
    },
    {
      "inputs": [
        {
          "internalType": "uint8",
          "name": "taxReward_",
          "type": "uint8"
        },
        {
          "internalType": "uint8",
          "name": "taxRewardDecimals_",
          "type": "uint8"
        }
      ],
      "name": "setTaxReward",
      "outputs": [],
      "stateMutability": "nonpayable",
      "type": "function"
    },
    {
      "inputs": [],
      "name": "symbol",
      "outputs": [
        {
          "internalType": "string",
          "name": "",
          "type": "string"
        }
      ],
      "stateMutability": "view",
      "type": "function",
      "constant": true
    },
    {
      "inputs": [],
      "name": "taxBurn",
      "outputs": [
        {
          "internalType": "uint8",
          "name": "",
          "type": "uint8"
        }
      ],
      "stateMutability": "view",
      "type": "function",
      "constant": true
    },
    {
      "inputs": [],
      "name": "taxBurnDecimals",
      "outputs": [
        {
          "internalType": "uint8",
          "name": "",
          "type": "uint8"
        }
      ],
      "stateMutability": "view",
      "type": "function",
      "constant": true
    },
    {
      "inputs": [],
      "name": "taxLiquify",
      "outputs": [
        {
          "internalType": "uint8",
          "name": "",
          "type": "uint8"
        }
      ],
      "stateMutability": "view",
      "type": "function",
      "constant": true
    },
    {
      "inputs": [],
      "name": "taxLiquifyDecimals",
      "outputs": [
        {
          "internalType": "uint8",
          "name": "",
          "type": "uint8"
        }
      ],
      "stateMutability": "view",
      "type": "function",
      "constant": true
    },
    {
      "inputs": [],
      "name": "taxReward",
      "outputs": [
        {
          "internalType": "uint8",
          "name": "",
          "type": "uint8"
        }
      ],
      "stateMutability": "view",
      "type": "function",
      "constant": true
    },
    {
      "inputs": [],
      "name": "taxRewardDecimals",
      "outputs": [
        {
          "internalType": "uint8",
          "name": "",
          "type": "uint8"
        }
      ],
      "stateMutability": "view",
      "type": "function",
      "constant": true
    },
    {
      "inputs": [],
      "name": "totalBurnt",
      "outputs": [
        {
          "internalType": "uint256",
          "name": "",
          "type": "uint256"
        }
      ],
      "stateMutability": "view",
      "type": "function",
      "constant": true
    },
    {
      "inputs": [],
      "name": "totalETHLockedInLiquidity",
      "outputs": [
        {
          "internalType": "uint256",
          "name": "",
          "type": "uint256"
        }
      ],
      "stateMutability": "view",
      "type": "function",
      "constant": true
    },
    {
      "inputs": [],
      "name": "totalSupply",
      "outputs": [
        {
          "internalType": "uint256",
          "name": "",
          "type": "uint256"
        }
      ],
      "stateMutability": "view",
      "type": "function",
      "constant": true
    },
    {
      "inputs": [],
      "name": "totalTokensLockedInLiquidity",
      "outputs": [
        {
          "internalType": "uint256",
          "name": "",
          "type": "uint256"
        }
      ],
      "stateMutability": "view",
      "type": "function",
      "constant": true
    },
    {
      "inputs": [
        {
          "internalType": "address",
          "name": "recipient",
          "type": "address"
        },
        {
          "internalType": "uint256",
          "name": "amount",
          "type": "uint256"
        }
      ],
      "name": "transfer",
      "outputs": [
        {
          "internalType": "bool",
          "name": "",
          "type": "bool"
        }
      ],
      "stateMutability": "nonpayable",
      "type": "function"
    },
    {
      "inputs": [
        {
          "internalType": "address",
          "name": "sender",
          "type": "address"
        },
        {
          "internalType": "address",
          "name": "recipient",
          "type": "address"
        },
        {
          "internalType": "uint256",
          "name": "amount",
          "type": "uint256"
        }
      ],
      "name": "transferFrom",
      "outputs": [
        {
          "internalType": "bool",
          "name": "",
          "type": "bool"
        }
      ],
      "stateMutability": "nonpayable",
      "type": "function"
    },
    {
      "inputs": [
        {
          "internalType": "address",
          "name": "newOwner",
          "type": "address"
        }
      ],
      "name": "transferOwnership",
      "outputs": [],
      "stateMutability": "nonpayable",
      "type": "function"
    },
    {
      "inputs": [],
      "name": "uniswapV2Pair",
      "outputs": [
        {
          "internalType": "address",
          "name": "",
          "type": "address"
        }
      ],
      "stateMutability": "view",
      "type": "function",
      "constant": true
    },
    {
      "stateMutability": "payable",
      "type": "receive",
      "payable": true
    }
  ],
  "bytecode": "0x60c060405260096080819052683a32b9ba3a37b5b2b760b91b60a09081526200002c916014919062000aa4565b50604080518082019091526004808252631d195cdd60e21b60209092019182526200005a9160159162000aa4565b506016805460ff191660129081179091556509184e72a0006017556018805463ffffffff1916620102011790556200009490600a62000bbb565b620000a2906103e862000c89565b601955348015620000b257600080fd5b5060148054620000c29062000cc5565b80601f0160208091040260200160405190810160405280929190818152602001828054620000f09062000cc5565b8015620001415780601f10620001155761010080835404028352916020019162000141565b820191906000526020600020905b8154815290600101906020018083116200012357829003601f168201915b505050505060158054620001559062000cc5565b80601f0160208091040260200160405190810160405280929190818152602001828054620001839062000cc5565b8015620001d45780601f10620001a857610100808354040283529160200191620001d4565b820191906000526020600020905b815481529060010190602001808311620001b657829003601f168201915b5050601654601754600080546001600160a01b03191633908117825560405160ff909416965091945090925082917f8be0079c531659141344cd1fd0a4f28419497f9722a3daafe3b4186f6b6457e0908290a35083516200023d90601190602087019062000aa4565b5082516200025390601290602086019062000aa4565b506008805460ff60d01b1916600160d01b60ff8516021790556200027982600a62000bbb565b62000285908262000c89565b6009819055600a8190556200029d9060001962000d02565b620002ab9060001962000cab565b600b819055336000818152600160209081526040808320949094556009549351938452919290917fddf252ad1be2c89b69c2b068fc378daa952ba7f163c4a11628f55a4df523b3ef910160405180910390a350506018546200031e925060ff808216925063010000009091041662000344565b6018546200033e9060ff610100820481169163010000009004166200051b565b62000d39565b6000546001600160a01b03163314620003935760405162461bcd60e51b81526020600482018190526024820152600080516020620048b583398151915260448201526064015b60405180910390fd5b60135462010000900460ff1615620003fc5760405162461bcd60e51b815260206004820152602560248201527f4175746f206275726e206665617475726520697320616c726561647920656e61604482015264313632b21760d91b60648201526084016200038a565b60008260ff1611620004515760405162461bcd60e51b815260206004820152601b60248201527f546178206d7573742062652067726561746572207468616e20302e000000000060448201526064016200038a565b62000465600854600160d01b900460ff1690565b60ff166200047582600262000b4a565b60ff161115620004d15760405162461bcd60e51b815260206004820152603160248201526000805160206200489583398151915260448201527037b5b2b7103232b1b4b6b0b6399016901960791b60648201526084016200038a565b6013805462ff0000191662010000179055620004ee8282620006ee565b6040517f1ae0c73021a2d0e597101e249754f53e8496443b3820ba2128b562a9873ad0b190600090a15050565b6000546001600160a01b03163314620005665760405162461bcd60e51b81526020600482018190526024820152600080516020620048b583398151915260448201526064016200038a565b6013546301000000900460ff1615620005cd5760405162461bcd60e51b815260206004820152602260248201527f526577617264206665617475726520697320616c726561647920656e61626c65604482015261321760f11b60648201526084016200038a565b60008260ff1611620006225760405162461bcd60e51b815260206004820152601b60248201527f546178206d7573742062652067726561746572207468616e20302e000000000060448201526064016200038a565b62000636600854600160d01b900460ff1690565b60ff166200064682600262000b4a565b60ff161115620006a25760405162461bcd60e51b815260206004820152603160248201526000805160206200489583398151915260448201527037b5b2b7103232b1b4b6b0b6399016901960791b60648201526084016200038a565b6013805463ff00000019166301000000179055620006c18282620008d2565b6040517fba4445e1bffa6a2c7f9686f9082addd1cbaf92d402889b0c26dcc2aa101f658e90600090a15050565b6000546001600160a01b03163314620007395760405162461bcd60e51b81526020600482018190526024820152600080516020620048b583398151915260448201526064016200038a565b60135462010000900460ff16620007c55760405162461bcd60e51b815260206004820152604360248201527f4175746f206275726e2066656174757265206d75737420626520656e61626c6560448201527f642e205472792074686520456e61626c654175746f4275726e2066756e63746960648201526237b71760e91b608482015260a4016200038a565b60085460649060ff600160c81b8204811691620007ec91600160c01b909104168562000b4a565b620007f8919062000b4a565b60ff16106200083e5760405162461bcd60e51b81526020600482015260116024820152702a30bc103332b2903a37b7903434b3b41760791b60448201526064016200038a565b6008805460ff838116600160a01b81810260ff60a01b19888516600160b81b8181029290921663ff0000ff60a01b19881617929092179096556040805196860485168088529290950490931660208601819052938501929092526060840152917f7934aea8452d2868336870fe7e0784562b6cf5cf909818ca893be463a9c676ff906080015b60405180910390a150505050565b6000546001600160a01b031633146200091d5760405162461bcd60e51b81526020600482018190526024820152600080516020620048b583398151915260448201526064016200038a565b6013546301000000900460ff166200099e5760405162461bcd60e51b815260206004820152603e60248201527f5265776172642066656174757265206d75737420626520656e61626c65642e2060448201527f5472792074686520456e61626c655265776172642066756e6374696f6e2e000060648201526084016200038a565b60085460649060ff600160c81b8204811691620009c5918691600160b81b90041662000b4a565b620009d1919062000b4a565b60ff161062000a175760405162461bcd60e51b81526020600482015260116024820152702a30bc103332b2903a37b7903434b3b41760791b60448201526064016200038a565b6008805460ff838116600160a01b810260ff60a01b19878416600160c01b8181029290921664ff000000ff60a01b1987161792909217909555604080519585048416808752600160a81b9095049093166020860181905292850152606084015290917f6c039e29b159adea5dd8b7d9d918df95d17403688c82bbb43cee50f0de301fc090608001620008c4565b82805462000ab29062000cc5565b90600052602060002090601f01602090048101928262000ad6576000855562000b21565b82601f1062000af157805160ff191683800117855562000b21565b8280016001018555821562000b21579182015b8281111562000b2157825182559160200191906001019062000b04565b5062000b2f92915062000b33565b5090565b5b8082111562000b2f576000815560010162000b34565b600060ff821660ff84168060ff0382111562000b6a5762000b6a62000d23565b019392505050565b600181815b8085111562000bb357816000190482111562000b975762000b9762000d23565b8085161562000ba557918102915b93841c939080029062000b77565b509250929050565b600062000bcc60ff84168362000bd3565b9392505050565b60008262000be45750600162000c83565b8162000bf35750600062000c83565b816001811462000c0c576002811462000c175762000c37565b600191505062000c83565b60ff84111562000c2b5762000c2b62000d23565b50506001821b62000c83565b5060208310610133831016604e8410600b841016171562000c5c575081810a62000c83565b62000c68838362000b72565b806000190482111562000c7f5762000c7f62000d23565b0290505b92915050565b600081600019048311821515161562000ca65762000ca662000d23565b500290565b60008282101562000cc05762000cc062000d23565b500390565b600181811c9082168062000cda57607f821691505b6020821081141562000cfc57634e487b7160e01b600052602260045260246000fd5b50919050565b60008262000d1e57634e487b7160e01b81526012600452602481fd5b500690565b634e487b7160e01b600052601160045260246000fd5b613b4c8062000d496000396000f3fe6080604052600436106102eb5760003560e01c80637656e14611610184578063a9059cbb116100d6578063e5d41c6b1161008a578063f91f054011610064578063f91f0540146108ff578063fa6e3f5414610914578063fbfa089c1461093457600080fd5b8063e5d41c6b14610898578063ea1c38b2146108ad578063f2fde38b146108df57600080fd5b8063d3f1e9e6116100bb578063d3f1e9e6146107f1578063d42ac37714610811578063dd62ed3e1461084557600080fd5b8063a9059cbb146107a0578063ad8e91dd146107c057600080fd5b806395d89b4111610138578063998acc0e11610112578063998acc0e146107425780639dd255da14610762578063a457c2d71461078057600080fd5b806395d89b41146106f8578063966ff6501461070d57806397dc4a131461072257600080fd5b806379cc67901161016957806379cc67901461066757806388f82020146106875780638da5cb5b146106cd57600080fd5b80637656e1461461063d578063771282f61461065257600080fd5b8063470d5cbd1161023d5780635342acb4116101f15780636e999d36116101cb5780636e999d36146105f357806370a0823114610608578063715018a61461062857600080fd5b80635342acb4146105785780636483ea8b146105be578063681bdc99146105d357600080fd5b806348a464731161022257806348a46473146104ec57806348abdec51461050c57806349bd5a5e1461052c57600080fd5b8063470d5cbd146104b75780634895c3e6146104cc57600080fd5b806318160ddd1161029f578063313ce56711610279578063313ce5671461043f578063395093511461047557806342966c681461049557600080fd5b806318160ddd146103e35780631c3034951461040257806323b872dd1461041f57600080fd5b8063095ea7b3116102d0578063095ea7b31461035f57806313facdb71461038f57806317ee6995146103c457600080fd5b806301b71531146102f757806306fdde031461033d57600080fd5b366102f257005b600080fd5b34801561030357600080fd5b5060085477010000000000000000000000000000000000000000000000900460ff165b60405160ff90911681526020015b60405180910390f35b34801561034957600080fd5b50610352610964565b60405161033491906137f5565b34801561036b57600080fd5b5061037f61037a366004613760565b6109f6565b6040519015158152602001610334565b34801561039b57600080fd5b50600854790100000000000000000000000000000000000000000000000000900460ff16610326565b3480156103d057600080fd5b506013546301000000900460ff1661037f565b3480156103ef57600080fd5b506009545b604051908152602001610334565b34801561040e57600080fd5b50601354610100900460ff1661037f565b34801561042b57600080fd5b5061037f61043a366004613725565b610a0d565b34801561044b57600080fd5b506008547a010000000000000000000000000000000000000000000000000000900460ff16610326565b34801561048157600080fd5b5061037f610490366004613760565b610b17565b3480156104a157600080fd5b506104b56104b0366004613789565b610b5b565b005b3480156104c357600080fd5b506104b5610b68565b3480156104d857600080fd5b506104b56104e73660046137a1565b610cac565b3480156104f857600080fd5b506104b5610507366004613789565b610eef565b34801561051857600080fd5b506104b56105273660046137ca565b611012565b34801561053857600080fd5b5060085473ffffffffffffffffffffffffffffffffffffffff165b60405173ffffffffffffffffffffffffffffffffffffffff9091168152602001610334565b34801561058457600080fd5b5061037f6105933660046136d9565b73ffffffffffffffffffffffffffffffffffffffff1660009081526003602052604090205460ff1690565b3480156105ca57600080fd5b506104b5611259565b3480156105df57600080fd5b506104b56105ee3660046137a1565b61139b565b3480156105ff57600080fd5b50600e546103f4565b34801561061457600080fd5b506103f46106233660046136d9565b61163c565b34801561063457600080fd5b506104b56116c2565b34801561064957600080fd5b506104b5611798565b34801561065e57600080fd5b50600a546103f4565b34801561067357600080fd5b506104b5610682366004613760565b6118db565b34801561069357600080fd5b5061037f6106a23660046136d9565b73ffffffffffffffffffffffffffffffffffffffff1660009081526004602052604090205460ff1690565b3480156106d957600080fd5b5060005473ffffffffffffffffffffffffffffffffffffffff16610553565b34801561070457600080fd5b5061035261197c565b34801561071957600080fd5b50600d546103f4565b34801561072e57600080fd5b506104b561073d366004613789565b61198b565b34801561074e57600080fd5b506104b561075d3660046137a1565b611b2b565b34801561076e57600080fd5b5060135462010000900460ff1661037f565b34801561078c57600080fd5b5061037f61079b366004613760565b611d70565b3480156107ac57600080fd5b5061037f6107bb366004613760565b611e26565b3480156107cc57600080fd5b506008547501000000000000000000000000000000000000000000900460ff16610326565b3480156107fd57600080fd5b506104b561080c3660046137a1565b611e33565b34801561081d57600080fd5b506008547801000000000000000000000000000000000000000000000000900460ff16610326565b34801561085157600080fd5b506103f46108603660046136f3565b73ffffffffffffffffffffffffffffffffffffffff918216600090815260066020908152604080832093909416825291909152205490565b3480156108a457600080fd5b506010546103f4565b3480156108b957600080fd5b50600854760100000000000000000000000000000000000000000000900460ff16610326565b3480156108eb57600080fd5b506104b56108fa3660046136d9565b6120cb565b34801561090b57600080fd5b50600f546103f4565b34801561092057600080fd5b506104b561092f3660046137a1565b612248565b34801561094057600080fd5b5060085474010000000000000000000000000000000000000000900460ff16610326565b60606011805461097390613a5a565b80601f016020809104026020016040519081016040528092919081815260200182805461099f90613a5a565b80156109ec5780601f106109c1576101008083540402835291602001916109ec565b820191906000526020600020905b8154815290600101906020018083116109cf57829003601f168201915b5050505050905090565b6000610a033384846124cd565b5060015b92915050565b6000610a1a84848461264c565b73ffffffffffffffffffffffffffffffffffffffff84166000908152600660209081526040808320338452909152902054821115610ac55760405162461bcd60e51b815260206004820152602860248201527f45524332303a207472616e7366657220616d6f756e742065786365656473206160448201527f6c6c6f77616e636500000000000000000000000000000000000000000000000060648201526084015b60405180910390fd5b73ffffffffffffffffffffffffffffffffffffffff8416600090815260066020908152604080832033808552925290912054610b0d918691610b08908690613a43565b6124cd565b5060019392505050565b33600081815260066020908152604080832073ffffffffffffffffffffffffffffffffffffffff871684529091528120549091610a03918590610b08908690613866565b610b6533826129f8565b50565b60005473ffffffffffffffffffffffffffffffffffffffff163314610bcf5760405162461bcd60e51b815260206004820181905260248201527f4f776e61626c653a2063616c6c6572206973206e6f7420746865206f776e65726044820152606401610abc565b6013546301000000900460ff16610c4e5760405162461bcd60e51b815260206004820152602360248201527f526577617264206665617475726520697320616c72656164792064697361626c60448201527f65642e00000000000000000000000000000000000000000000000000000000006064820152608401610abc565b610c59600080612248565b601380547fffffffffffffffffffffffffffffffffffffffffffffffffffffffff00ffffff1690556040517f9843194c3ceed34b5019222853f7806a15e8658437ee2a92d9497af23775eb1c90600090a1565b60005473ffffffffffffffffffffffffffffffffffffffff163314610d135760405162461bcd60e51b815260206004820181905260248201527f4f776e61626c653a2063616c6c6572206973206e6f7420746865206f776e65726044820152606401610abc565b60135462010000900460ff1615610d925760405162461bcd60e51b815260206004820152602560248201527f4175746f206275726e206665617475726520697320616c726561647920656e6160448201527f626c65642e0000000000000000000000000000000000000000000000000000006064820152608401610abc565b60008260ff1611610de55760405162461bcd60e51b815260206004820152601b60248201527f546178206d7573742062652067726561746572207468616e20302e00000000006044820152606401610abc565b6008547a010000000000000000000000000000000000000000000000000000900460ff16610e1482600261387e565b60ff161115610e8b5760405162461bcd60e51b815260206004820152603160248201527f54617820646563696d616c73206d757374206265206c657373207468616e207460448201527f6f6b656e20646563696d616c73202d20320000000000000000000000000000006064820152608401610abc565b601380547fffffffffffffffffffffffffffffffffffffffffffffffffffffffffff00ffff1662010000179055610ec2828261139b565b6040517f1ae0c73021a2d0e597101e249754f53e8496443b3820ba2128b562a9873ad0b190600090a15050565b60005473ffffffffffffffffffffffffffffffffffffffff163314610f565760405162461bcd60e51b815260206004820181905260248201527f4f776e61626c653a2063616c6c6572206973206e6f7420746865206f776e65726044820152606401610abc565b600a548110610fcd5760405162461bcd60e51b815260206004820152603760248201527f6d696e546f6b656e734265666f726553776170206d757374206265206869676860448201527f6572207468616e2063757272656e7420737570706c792e0000000000000000006064820152608401610abc565b601080549082905560408051828152602081018490527fd2f58a5c369e86bc74f3b5be6f9a34224ebb43d603f7acee04b07ef21c7d14bf910160405180910390a15050565b60005473ffffffffffffffffffffffffffffffffffffffff1633146110795760405162461bcd60e51b815260206004820181905260248201527f4f776e61626c653a2063616c6c6572206973206e6f7420746865206f776e65726044820152606401610abc565b601354610100900460ff16156110f75760405162461bcd60e51b815260206004820152603160248201527f4175746f207377617020616e64206c697175696679206665617475726520697360448201527f20616c726561647920656e61626c65642e0000000000000000000000000000006064820152608401610abc565b60008360ff161161114a5760405162461bcd60e51b815260206004820152601b60248201527f546178206d7573742062652067726561746572207468616e20302e00000000006044820152606401610abc565b6008547a010000000000000000000000000000000000000000000000000000900460ff1661117983600261387e565b60ff1611156111f05760405162461bcd60e51b815260206004820152603160248201527f54617820646563696d616c73206d757374206265206c657373207468616e207460448201527f6f6b656e20646563696d616c73202d20320000000000000000000000000000006064820152608401610abc565b6010819055601380547fffffffffffffffffffffffffffffffffffffffffffffffffffffffffffff00ff1661010017905561122b8383611e33565b6040517fa00cf3c70c4ccd1ccc7e6403d8e96dc52e5727f0b30bffb4ea2969689fcb600890600090a1505050565b60005473ffffffffffffffffffffffffffffffffffffffff1633146112c05760405162461bcd60e51b815260206004820181905260248201527f4f776e61626c653a2063616c6c6572206973206e6f7420746865206f776e65726044820152606401610abc565b601354610100900460ff1661133d5760405162461bcd60e51b815260206004820152603260248201527f4175746f207377617020616e64206c697175696679206665617475726520697360448201527f20616c72656164792064697361626c65642e00000000000000000000000000006064820152608401610abc565b611348600080611e33565b601380547fffffffffffffffffffffffffffffffffffffffffffffffffffffffffffff00ff1690556040517f8b81884e0d82e2abd8363cce812b78c588d27387411db0470222a728a917783e90600090a1565b60005473ffffffffffffffffffffffffffffffffffffffff1633146114025760405162461bcd60e51b815260206004820181905260248201527f4f776e61626c653a2063616c6c6572206973206e6f7420746865206f776e65726044820152606401610abc565b60135462010000900460ff166114a65760405162461bcd60e51b815260206004820152604360248201527f4175746f206275726e2066656174757265206d75737420626520656e61626c6560448201527f642e205472792074686520456e61626c654175746f4275726e2066756e63746960648201527f6f6e2e0000000000000000000000000000000000000000000000000000000000608482015260a401610abc565b60085460649060ff79010000000000000000000000000000000000000000000000000082048116916114f6917801000000000000000000000000000000000000000000000000909104168561387e565b611500919061387e565b60ff16106115505760405162461bcd60e51b815260206004820152601160248201527f5461782066656520746f6f20686967682e0000000000000000000000000000006044820152606401610abc565b6008805460ff838116740100000000000000000000000000000000000000008181027fffffffffffffffffffffff00ffffffffffffffffffffffffffffffffffffffff88851677010000000000000000000000000000000000000000000000818102929092167fffffffffffffffff00ffff00ffffffffffffffffffffffffffffffffffffffff881617929092179096556040805196860485168088529290950490931660208601819052938501929092526060840152917f7934aea8452d2868336870fe7e0784562b6cf5cf909818ca893be463a9c676ff906080015b60405180910390a150505050565b73ffffffffffffffffffffffffffffffffffffffff811660009081526004602052604081205460ff1615611693575073ffffffffffffffffffffffffffffffffffffffff1660009081526002602052604090205490565b73ffffffffffffffffffffffffffffffffffffffff8216600090815260016020526040902054610a0790612d5e565b60005473ffffffffffffffffffffffffffffffffffffffff1633146117295760405162461bcd60e51b815260206004820181905260248201527f4f776e61626c653a2063616c6c6572206973206e6f7420746865206f776e65726044820152606401610abc565b6000805460405173ffffffffffffffffffffffffffffffffffffffff909116907f8be0079c531659141344cd1fd0a4f28419497f9722a3daafe3b4186f6b6457e0908390a3600080547fffffffffffffffffffffffff0000000000000000000000000000000000000000169055565b60005473ffffffffffffffffffffffffffffffffffffffff1633146117ff5760405162461bcd60e51b815260206004820181905260248201527f4f776e61626c653a2063616c6c6572206973206e6f7420746865206f776e65726044820152606401610abc565b60135462010000900460ff1661187d5760405162461bcd60e51b815260206004820152602660248201527f4175746f206275726e206665617475726520697320616c72656164792064697360448201527f61626c65642e00000000000000000000000000000000000000000000000000006064820152608401610abc565b61188860008061139b565b601380547fffffffffffffffffffffffffffffffffffffffffffffffffffffffffff00ffff1690556040517f6d4de23ebf419282b51fea4d5ebe9d980cf43df3f9e8ddde137786adfc2c5d6a90600090a1565b60006118e78333610860565b90508181101561195e5760405162461bcd60e51b8152602060048201526024808201527f45524332303a206275726e20616d6f756e74206578636565647320616c6c6f7760448201527f616e6365000000000000000000000000000000000000000000000000000000006064820152608401610abc565b61196d8333610b088585613a43565b61197783836129f8565b505050565b60606012805461097390613a5a565b33816119968261163c565b1015611a0a5760405162461bcd60e51b815260206004820152602760248201527f5468652063616c6c6572206d75737420686176652062616c616e6365203e3d2060448201527f616d6f756e742e000000000000000000000000000000000000000000000000006064820152608401610abc565b6000611a17836000612df5565b73ffffffffffffffffffffffffffffffffffffffff831660009081526004602052604090205490915060ff1615611a8557805173ffffffffffffffffffffffffffffffffffffffff831660009081526002602052604081208054909190611a7f908490613a43565b90915550505b60a081015173ffffffffffffffffffffffffffffffffffffffff831660009081526001602052604081208054909190611abf908490613a43565b909155505060a0810151600b54611ad69190613a43565b600b8190555082600c6000828254611aee9190613866565b90915550506040518381527fd0ecdf4854f39daba34ba0e2c1ed0132a7023a5434bffc90b24f3335fb90e5e39060200160405180910390a1505050565b60005473ffffffffffffffffffffffffffffffffffffffff163314611b925760405162461bcd60e51b815260206004820181905260248201527f4f776e61626c653a2063616c6c6572206973206e6f7420746865206f776e65726044820152606401610abc565b6013546301000000900460ff1615611c125760405162461bcd60e51b815260206004820152602260248201527f526577617264206665617475726520697320616c726561647920656e61626c6560448201527f642e0000000000000000000000000000000000000000000000000000000000006064820152608401610abc565b60008260ff1611611c655760405162461bcd60e51b815260206004820152601b60248201527f546178206d7573742062652067726561746572207468616e20302e00000000006044820152606401610abc565b6008547a010000000000000000000000000000000000000000000000000000900460ff16611c9482600261387e565b60ff161115611d0b5760405162461bcd60e51b815260206004820152603160248201527f54617820646563696d616c73206d757374206265206c657373207468616e207460448201527f6f6b656e20646563696d616c73202d20320000000000000000000000000000006064820152608401610abc565b601380547fffffffffffffffffffffffffffffffffffffffffffffffffffffffff00ffffff166301000000179055611d438282612248565b6040517fba4445e1bffa6a2c7f9686f9082addd1cbaf92d402889b0c26dcc2aa101f658e90600090a15050565b33600090815260066020908152604080832073ffffffffffffffffffffffffffffffffffffffff8616845290915281205482811015611e175760405162461bcd60e51b815260206004820152602560248201527f45524332303a2064656372656173656420616c6c6f77616e63652062656c6f7760448201527f207a65726f0000000000000000000000000000000000000000000000000000006064820152608401610abc565b610b0d3385610b088685613a43565b6000610a0333848461264c565b60005473ffffffffffffffffffffffffffffffffffffffff163314611e9a5760405162461bcd60e51b815260206004820181905260248201527f4f776e61626c653a2063616c6c6572206973206e6f7420746865206f776e65726044820152606401610abc565b601354610100900460ff16611f3d5760405162461bcd60e51b815260206004820152605960248201527f4175746f207377617020616e64206c6971756966792066656174757265206d7560448201527f737420626520656e61626c65642e205472792074686520456e61626c6541757460648201527f6f53776170416e644c6971756966792066756e6374696f6e2e00000000000000608482015260a401610abc565b6008546064908390611f8b9060ff780100000000000000000000000000000000000000000000000082048116917701000000000000000000000000000000000000000000000090041661387e565b611f95919061387e565b60ff1610611fe55760405162461bcd60e51b815260206004820152601160248201527f5461782066656520746f6f20686967682e0000000000000000000000000000006044820152606401610abc565b6008805460ff8381167601000000000000000000000000000000000000000000008181027fffffffffffffffffff00ffffffffffffffffffffffffffffffffffffffffffff888516790100000000000000000000000000000000000000000000000000818102929092167fffffffffffff00ffff00ffffffffffffffffffffffffffffffffffffffffffff881617929092179096556040805196860485168088529290950490931660208601819052938501929092526060840152917f4ef9498dae4f4f6d32f12de45f94544890db3c4ed687b86b0774a34dd2de317f9060800161162e565b60005473ffffffffffffffffffffffffffffffffffffffff1633146121325760405162461bcd60e51b815260206004820181905260248201527f4f776e61626c653a2063616c6c6572206973206e6f7420746865206f776e65726044820152606401610abc565b73ffffffffffffffffffffffffffffffffffffffff81166121bb5760405162461bcd60e51b815260206004820152602660248201527f4f776e61626c653a206e6577206f776e657220697320746865207a65726f206160448201527f64647265737300000000000000000000000000000000000000000000000000006064820152608401610abc565b6000805460405173ffffffffffffffffffffffffffffffffffffffff808516939216917f8be0079c531659141344cd1fd0a4f28419497f9722a3daafe3b4186f6b6457e091a3600080547fffffffffffffffffffffffff00000000000000000000000000000000000000001673ffffffffffffffffffffffffffffffffffffffff92909216919091179055565b60005473ffffffffffffffffffffffffffffffffffffffff1633146122af5760405162461bcd60e51b815260206004820181905260248201527f4f776e61626c653a2063616c6c6572206973206e6f7420746865206f776e65726044820152606401610abc565b6013546301000000900460ff1661232e5760405162461bcd60e51b815260206004820152603e60248201527f5265776172642066656174757265206d75737420626520656e61626c65642e2060448201527f5472792074686520456e61626c655265776172642066756e6374696f6e2e00006064820152608401610abc565b60085460649060ff790100000000000000000000000000000000000000000000000000820481169161237d9186917701000000000000000000000000000000000000000000000090041661387e565b612387919061387e565b60ff16106123d75760405162461bcd60e51b815260206004820152601160248201527f5461782066656520746f6f20686967682e0000000000000000000000000000006044820152606401610abc565b6008805460ff8381167401000000000000000000000000000000000000000081027fffffffffffffffffffffff00ffffffffffffffffffffffffffffffffffffffff8784167801000000000000000000000000000000000000000000000000818102929092167fffffffffffffff00ffffff00ffffffffffffffffffffffffffffffffffffffff8716179290921790955560408051958504841680875275010000000000000000000000000000000000000000009095049093166020860181905292850152606084015290917f6c039e29b159adea5dd8b7d9d918df95d17403688c82bbb43cee50f0de301fc09060800161162e565b73ffffffffffffffffffffffffffffffffffffffff83166125555760405162461bcd60e51b8152602060048201526024808201527f45524332303a20617070726f76652066726f6d20746865207a65726f2061646460448201527f72657373000000000000000000000000000000000000000000000000000000006064820152608401610abc565b73ffffffffffffffffffffffffffffffffffffffff82166125de5760405162461bcd60e51b815260206004820152602260248201527f45524332303a20617070726f766520746f20746865207a65726f20616464726560448201527f73730000000000000000000000000000000000000000000000000000000000006064820152608401610abc565b73ffffffffffffffffffffffffffffffffffffffff83811660008181526006602090815260408083209487168084529482529182902085905590518481527f8c5be1e5ebec7d5bd14f71427d1e84f3dd0314c0f7b2291e5b200ac8c7c3b925910160405180910390a3505050565b73ffffffffffffffffffffffffffffffffffffffff83166126d55760405162461bcd60e51b815260206004820152602560248201527f45524332303a207472616e736665722066726f6d20746865207a65726f20616460448201527f64726573730000000000000000000000000000000000000000000000000000006064820152608401610abc565b73ffffffffffffffffffffffffffffffffffffffff821661275e5760405162461bcd60e51b815260206004820152602360248201527f45524332303a207472616e7366657220746f20746865207a65726f206164647260448201527f65737300000000000000000000000000000000000000000000000000000000006064820152608401610abc565b73ffffffffffffffffffffffffffffffffffffffff831660009081526003602052604081205461279290839060ff16612df5565b73ffffffffffffffffffffffffffffffffffffffff851660009081526004602052604090205490915060ff1680156127f0575073ffffffffffffffffffffffffffffffffffffffff831660009081526004602052604090205460ff16155b1561280557612800848483612eb8565b612951565b73ffffffffffffffffffffffffffffffffffffffff841660009081526004602052604090205460ff16158015612860575073ffffffffffffffffffffffffffffffffffffffff831660009081526004602052604090205460ff165b1561287057612800848483612fa1565b73ffffffffffffffffffffffffffffffffffffffff841660009081526004602052604090205460ff161580156128cc575073ffffffffffffffffffffffffffffffffffffffff831660009081526004602052604090205460ff16155b156128dc57612800848483613065565b73ffffffffffffffffffffffffffffffffffffffff841660009081526004602052604090205460ff168015612936575073ffffffffffffffffffffffffffffffffffffffff831660009081526004602052604090205460ff165b156129465761280084848361309a565b612951848483613065565b8273ffffffffffffffffffffffffffffffffffffffff168473ffffffffffffffffffffffffffffffffffffffff167fddf252ad1be2c89b69c2b068fc378daa952ba7f163c4a11628f55a4df523b3ef83608001516040516129b491815260200190565b60405180910390a373ffffffffffffffffffffffffffffffffffffffff841660009081526003602052604090205460ff166129f2576129f281613110565b50505050565b73ffffffffffffffffffffffffffffffffffffffff821673f3d383aae83c80cccfef84ee7e864e1c249089ff1415612a985760405162461bcd60e51b815260206004820152602160248201527f45524332303a206275726e2066726f6d20746865206275726e2061646472657360448201527f73000000000000000000000000000000000000000000000000000000000000006064820152608401610abc565b6000612aa38361163c565b905081811015612b1b5760405162461bcd60e51b815260206004820152602260248201527f45524332303a206275726e20616d6f756e7420657863656564732062616c616e60448201527f63650000000000000000000000000000000000000000000000000000000000006064820152608401610abc565b6000612b26836131b7565b73ffffffffffffffffffffffffffffffffffffffff851660009081526004602052604090205490915060ff1615612b925773ffffffffffffffffffffffffffffffffffffffff841660009081526002602052604081208054859290612b8c908490613a43565b90915550505b73ffffffffffffffffffffffffffffffffffffffff841660009081526001602052604081208054839290612bc7908490613a43565b909155505073f3d383aae83c80cccfef84ee7e864e1c249089ff600090815260026020527f324490b176db5f40fff71a1d336735a3708d1db27d98ef1ee80d416ab433588b8054859290612c1c908490613866565b909155505073f3d383aae83c80cccfef84ee7e864e1c249089ff600090815260016020527ff25936cf7c37ab6bbcf4397cdd2c6b5a56dcea3c4d889090cde543abca3ebdbf8054839290612c71908490613866565b9250508190555082600a6000828254612c8a9190613a43565b9250508190555082600d6000828254612ca39190613866565b90915550506040805173ffffffffffffffffffffffffffffffffffffffff86168152602081018590527fcc16f5dbb4873280815c1ee09dbd06736cffcc184412cf7a71a0fdb75d397ca5910160405180910390a160405183815273f3d383aae83c80cccfef84ee7e864e1c249089ff9073ffffffffffffffffffffffffffffffffffffffff8616907fddf252ad1be2c89b69c2b068fc378daa952ba7f163c4a11628f55a4df523b3ef9060200160405180910390a350505050565b6000600b54821115612dd85760405162461bcd60e51b815260206004820152602a60248201527f416d6f756e74206d757374206265206c657373207468616e20746f74616c207260448201527f65666c656374696f6e73000000000000000000000000000000000000000000006064820152608401610abc565b6000612de26131ce565b9050612dee81846138a3565b9392505050565b612e4b604051806101400160405280600081526020016000815260200160008152602001600081526020016000815260200160008152602001600081526020016000815260200160008152602001600081525090565b612ea1604051806101400160405280600081526020016000815260200160008152602001600081526020016000815260200160008152602001600081526020016000815260200160008152602001600081525090565b838152612eae81846131f1565b612dee8184613324565b805173ffffffffffffffffffffffffffffffffffffffff8416600090815260026020526040902054612eea9190613a43565b73ffffffffffffffffffffffffffffffffffffffff841660009081526002602090815260408083209390935560a0840151600190915291902054612f2e9190613a43565b73ffffffffffffffffffffffffffffffffffffffff8085166000908152600160205260408082209390935561012084015191851681529190912054612f739190613866565b73ffffffffffffffffffffffffffffffffffffffff9092166000908152600160205260409020919091555050565b60a081015173ffffffffffffffffffffffffffffffffffffffff8416600090815260016020526040902054612fd69190613a43565b73ffffffffffffffffffffffffffffffffffffffff808516600090815260016020908152604080832094909455608085015192861682526002905291909120546130209190613866565b73ffffffffffffffffffffffffffffffffffffffff8316600090815260026020908152604080832093909355610120840151600190915291902054612f739190613866565b60a081015173ffffffffffffffffffffffffffffffffffffffff8416600090815260016020526040902054612f2e9190613a43565b805173ffffffffffffffffffffffffffffffffffffffff84166000908152600260205260409020546130cc9190613a43565b73ffffffffffffffffffffffffffffffffffffffff841660009081526002602090815260408083209390935560a0840151600190915291902054612fd69190613a43565b60135462010000900460ff161561319357602080820151306000908152600290925260408220805491929091613147908490613866565b909155505060c08101513060009081526001602052604081208054909190613170908490613866565b909155506131859050303383602001516124cd565b6131933082602001516118db565b6013546301000000900460ff1615610b6557610b658160e0015182604001516133e5565b6000806131c26131ce565b9050612dee8184613a06565b60008060006131db613414565b90925090506131ea81836138a3565b9250505090565b801561320257815160808301525050565b815160085461324a919060ff77010000000000000000000000000000000000000000000000820481169174010000000000000000000000000000000000000000900416613667565b60208301528151600854613299919060ff780100000000000000000000000000000000000000000000000082048116917501000000000000000000000000000000000000000000900416613667565b604083015281516008546132ea919060ff7901000000000000000000000000000000000000000000000000008204811691760100000000000000000000000000000000000000000000900416613667565b606083018190526040830151602084015184516133079190613a43565b6133119190613a43565b61331b9190613a43565b60808301525050565b600061332e6131ce565b835190915061333e908290613a06565b60a084015281156133595760a0830151610120840152505050565b8251613366908290613a06565b60a0840152602083015161337b908290613a06565b60c08401526040830151613390908290613a06565b60e084015260608301516133a5908290613a06565b610100840181905260e084015160c085015160a08601516133c69190613a43565b6133d09190613a43565b6133da9190613a43565b610120840152505050565b81600b546133f39190613a43565b600b8190555080600c600082825461340b9190613866565b90915550505050565b600b546009546000918291825b6005548110156136365782600160006005848154811061346a577f4e487b7100000000000000000000000000000000000000000000000000000000600052603260045260246000fd5b600091825260208083209091015473ffffffffffffffffffffffffffffffffffffffff168352820192909252604001902054118061351657508160026000600584815481106134e2577f4e487b7100000000000000000000000000000000000000000000000000000000600052603260045260246000fd5b600091825260208083209091015473ffffffffffffffffffffffffffffffffffffffff168352820192909252604001902054115b1561352c57600b54600954945094505050509091565b600160006005838154811061356a577f4e487b7100000000000000000000000000000000000000000000000000000000600052603260045260246000fd5b600091825260208083209091015473ffffffffffffffffffffffffffffffffffffffff1683528201929092526040019020546135a69084613a43565b925060026000600583815481106135e6577f4e487b7100000000000000000000000000000000000000000000000000000000600052603260045260246000fd5b600091825260208083209091015473ffffffffffffffffffffffffffffffffffffffff1683528201929092526040019020546136229083613a43565b91508061362e81613aae565b915050613421565b50600954600b5461364791906138a3565b82101561365e57600b546009549350935050509091565b90939092509050565b6000606461367683600a61393d565b61368360ff861687613a06565b61368d91906138a3565b61369791906138a3565b949350505050565b803573ffffffffffffffffffffffffffffffffffffffff811681146136c357600080fd5b919050565b803560ff811681146136c357600080fd5b6000602082840312156136ea578081fd5b612dee8261369f565b60008060408385031215613705578081fd5b61370e8361369f565b915061371c6020840161369f565b90509250929050565b600080600060608486031215613739578081fd5b6137428461369f565b92506137506020850161369f565b9150604084013590509250925092565b60008060408385031215613772578182fd5b61377b8361369f565b946020939093013593505050565b60006020828403121561379a578081fd5b5035919050565b600080604083850312156137b3578182fd5b6137bc836136c8565b915061371c602084016136c8565b6000806000606084860312156137de578283fd5b6137e7846136c8565b9250613750602085016136c8565b6000602080835283518082850152825b8181101561382157858101830151858201604001528201613805565b818111156138325783604083870101525b50601f017fffffffffffffffffffffffffffffffffffffffffffffffffffffffffffffffe016929092016040019392505050565b6000821982111561387957613879613ae7565b500190565b600060ff821660ff84168060ff0382111561389b5761389b613ae7565b019392505050565b6000826138d7577f4e487b710000000000000000000000000000000000000000000000000000000081526012600452602481fd5b500490565b600181815b8085111561393557817fffffffffffffffffffffffffffffffffffffffffffffffffffffffffffffffff0482111561391b5761391b613ae7565b8085161561392857918102915b93841c93908002906138e1565b509250929050565b6000612dee60ff84168360008261395657506001610a07565b8161396357506000610a07565b816001811461397957600281146139835761399f565b6001915050610a07565b60ff84111561399457613994613ae7565b50506001821b610a07565b5060208310610133831016604e8410600b84101617156139c2575081810a610a07565b6139cc83836138dc565b807fffffffffffffffffffffffffffffffffffffffffffffffffffffffffffffffff048211156139fe576139fe613ae7565b029392505050565b6000817fffffffffffffffffffffffffffffffffffffffffffffffffffffffffffffffff0483118215151615613a3e57613a3e613ae7565b500290565b600082821015613a5557613a55613ae7565b500390565b600181811c90821680613a6e57607f821691505b60208210811415613aa8577f4e487b7100000000000000000000000000000000000000000000000000000000600052602260045260246000fd5b50919050565b60007fffffffffffffffffffffffffffffffffffffffffffffffffffffffffffffffff821415613ae057613ae0613ae7565b5060010190565b7f4e487b7100000000000000000000000000000000000000000000000000000000600052601160045260246000fdfea2646970667358221220be31c9a622af4405375227614bf98b8d16be51715df4453b26e5dd4cff81a63c64736f6c6343000804003354617820646563696d616c73206d757374206265206c657373207468616e20744f776e61626c653a2063616c6c6572206973206e6f7420746865206f776e6572",
  "immutableReferences": {},
  "source": "// SPDX-License-Identifier: MIT\n\npragma solidity ^0.8.4;\n\nimport \"@openzeppelin/contracts/utils/Context.sol\";\nimport \"./ERC20Deflationary.sol\";\n\ncontract ExampleToken is Context, ERC20Deflationary {\n\n    string private name_ = \"testtoken\";\n    string private symbol_ = \"test\";\n    uint8 private decimal_ = 18;\n    uint256 private tokenSupply_ = 10000000000000;\n    uint8 private taxBurn_ = 1;\n    uint8 private taxReward_ = 2;\n    uint8 private taxLiquify_ = 1;\n    uint8 private taxDecimals_ = 0;\n    uint256 private minTokensBeforeSwap_ = (1000) * (10 ** decimal_);\n\n    constructor () ERC20Deflationary(name_, symbol_, decimal_, tokenSupply_) {\n        enableAutoBurn(taxBurn_, taxDecimals_);\n        enableReward(taxReward_, taxDecimals_);\n    }\n\n}",
  "sourcePath": "C:\\Users\\omrel\\Desktop\\ERC20Deflationary-master\\contracts\\ExampleToken.sol",
  "compiler": {
    "name": "solc",
    "version": "0.8.4+commit.c7e474f2.Emscripten.clang"
  },
  "schemaVersion": "3.4.10",
  "updatedAt": "2022-12-27T09:57:51.520Z",
  "networkType": "ethereum",
  "devdoc": {
    "kind": "dev",
    "methods": {
      "airdrop(uint256)": {
        "details": "Airdrop tokens to all holders that are included from reward.   Requirements: - the caller must have a balance of at least `amount`."
      },
      "allowance(address,address)": {
        "details": "See {IERC20-allowance}."
      },
      "approve(address,uint256)": {
        "details": "See {IERC20-approve}. Requirements: - `spender` cannot be the zero address."
      },
      "autoBurnEnabled()": {
        "details": "Returns true if auto burn feature is enabled."
      },
      "autoSwapAndLiquifyEnabled()": {
        "details": "Returns true if auto swap and liquify feature is enabled."
      },
      "balanceOf(address)": {
        "details": "See {IERC20-balanceOf}."
      },
      "burn(uint256)": {
        "details": "Destroys `amount` tokens from the caller."
      },
      "burnFrom(address,uint256)": {
        "details": "Destroys `amount` tokens from `account`, deducting from the caller's allowance. See {ERC20-_burn} and {ERC20-allowance}. Requirements: - the caller must have allowance for ``accounts``'s tokens of at least `amount`."
      },
      "currentSupply()": {
        "details": "Returns current supply of the token.  (currentSupply := totalSupply - totalBurnt)"
      },
      "decimals()": {
        "details": "Returns the number of decimals used to get its user representation. For example, if `decimals` equals `2`, a balance of `505` tokens should be displayed to a user as `5,05` (`505 / 10 ** 2`). NOTE: This information is only used for _display_ purposes: it in no way affects any of the arithmetic of the contract, including {IERC20-balanceOf} and {IERC20-transfer}."
      },
      "decreaseAllowance(address,uint256)": {
        "details": "Atomically decreases the allowance granted to `spender` by the caller. This is an alternative to {approve} that can be used as a mitigation for problems described in {IERC20-approve}. Emits an {Approval} event indicating the updated allowance. Requirements: - `spender` cannot be the zero address. - `spender` must have allowance for the caller of at least `subtractedValue`."
      },
      "disableAutoBurn()": {
        "details": "Disables the auto burn feature. Emits a {DisabledAutoBurn} event. Requirements: - auto burn feature mush be enabled."
      },
      "disableAutoSwapAndLiquify()": {
        "details": "Disables the auto swap and liquify feature. Emits a {DisabledAutoSwapAndLiquify} event. Requirements: - auto swap and liquify feature mush be enabled."
      },
      "disableReward()": {
        "details": "Disables the reward feature. Emits a {DisabledReward} event. Requirements: - reward feature mush be enabled."
      },
      "enableAutoBurn(uint8,uint8)": {
        "details": "Enables the auto burn feature. Burn transaction amount * `taxBurn_` amount of tokens each transaction when enabled. Emits a {EnabledAutoBurn} event. Requirements: - auto burn feature mush be disabled. - tax must be greater than 0. - tax decimals + 2 must be less than token decimals.  (because tax rate is in percentage)"
      },
      "enableAutoSwapAndLiquify(uint8,uint8,uint256)": {
        "details": "Enables the auto swap and liquify feature. Swaps half of transaction amount * `taxLiquify_` amount of tokens  to ETH and pair with the other half of tokens to the LP each transaction when enabled. Emits a {EnabledAutoSwapAndLiquify} event. Requirements: - auto swap and liquify feature mush be disabled. - tax must be greater than 0. - tax decimals + 2 must be less than token decimals.  (because tax rate is in percentage)"
      },
      "enableReward(uint8,uint8)": {
        "details": "Enables the reward feature. Distribute transaction amount * `taxReward_` amount of tokens each transaction when enabled. Emits a {EnabledReward} event. Requirements: - reward feature mush be disabled. - tax must be greater than 0. - tax decimals + 2 must be less than token decimals.  (because tax rate is in percentage)"
      },
      "increaseAllowance(address,uint256)": {
        "details": "Atomically increases the allowance granted to `spender` by the caller. This is an alternative to {approve} that can be used as a mitigation for problems described in {IERC20-approve}. Emits an {Approval} event indicating the updated allowance. Requirements: - `spender` cannot be the zero address."
      },
      "isExcludedFromFee(address)": {
        "details": "Returns whether an account is excluded from fee. "
      },
      "isExcludedFromReward(address)": {
        "details": "Returns whether an account is excluded from reward. "
      },
      "minTokensBeforeSwap()": {
        "details": "Returns the threshold before swap and liquify."
      },
      "name()": {
        "details": "Returns the name of the token."
      },
      "owner()": {
        "details": "Returns the address of the current owner."
      },
      "renounceOwnership()": {
        "details": "Leaves the contract without owner. It will not be possible to call `onlyOwner` functions anymore. Can only be called by the current owner. NOTE: Renouncing ownership will leave the contract without an owner, thereby removing any functionality that is only available to the owner."
      },
      "rewardEnabled()": {
        "details": "Returns true if reward feature is enabled."
      },
      "setMinTokensBeforeSwap(uint256)": {
        "details": "Updates `_minTokensBeforeSwap` Emits a {MinTokensBeforeSwap} event. Requirements: - `minTokensBeforeSwap_` must be less than _currentSupply."
      },
      "setTaxBurn(uint8,uint8)": {
        "details": "Updates taxBurn Emits a {TaxBurnUpdate} event. Requirements: - auto burn feature must be enabled. - total tax rate must be less than 100%."
      },
      "setTaxLiquify(uint8,uint8)": {
        "details": "Updates taxLiquify Emits a {TaxLiquifyUpdate} event. Requirements: - auto swap and liquify feature must be enabled. - total tax rate must be less than 100%."
      },
      "setTaxReward(uint8,uint8)": {
        "details": "Updates taxReward Emits a {TaxRewardUpdate} event. Requirements: - reward feature must be enabled. - total tax rate must be less than 100%."
      },
      "symbol()": {
        "details": "Returns the symbol of the token, usually a shorter version of the name."
      },
      "taxBurn()": {
        "details": "Returns the current burn tax."
      },
      "taxBurnDecimals()": {
        "details": "Returns the current burn tax decimals."
      },
      "taxLiquify()": {
        "details": "Returns the current liquify tax."
      },
      "taxLiquifyDecimals()": {
        "details": "Returns the current liquify tax decimals."
      },
      "taxReward()": {
        "details": "Returns the current reward tax."
      },
      "taxRewardDecimals()": {
        "details": "Returns the current reward tax decimals."
      },
      "totalBurnt()": {
        "details": "Returns the total number of tokens burnt. "
      },
      "totalETHLockedInLiquidity()": {
        "details": "Returns the total number of ETH locked in the LP."
      },
      "totalSupply()": {
        "details": "See {IERC20-totalSupply}."
      },
      "totalTokensLockedInLiquidity()": {
        "details": "Returns the total number of tokens locked in the LP."
      },
      "transfer(address,uint256)": {
        "details": "See {IERC20-transfer}. Requirements: - `recipient` cannot be the zero address. - the caller must have a balance of at least `amount`."
      },
      "transferFrom(address,address,uint256)": {
        "details": "See {IERC20-transferFrom}. Emits an {Approval} event indicating the updated allowance. This is not required by the EIP. See the note at the beginning of {ERC20}. Requirements: - `sender` and `recipient` cannot be the zero address. - `sender` must have a balance of at least `amount`. - the caller must have allowance for ``sender``'s tokens of at least `amount`."
      },
      "transferOwnership(address)": {
        "details": "Transfers ownership of the contract to a new account (`newOwner`). Can only be called by the current owner."
      },
      "uniswapV2Pair()": {
        "details": "Returns the address of this token and WETH pair."
      }
    },
    "version": 1
  },
  "userdoc": {
    "kind": "user",
    "methods": {},
    "version": 1
  }
}